{
	"contract/pokar/pokar.sol": {
		"pokar": {
			"abi": [
				{
					"inputs": [
						{
							"internalType": "uint256",
							"name": "",
							"type": "uint256"
						},
						{
							"internalType": "uint256",
							"name": "",
							"type": "uint256"
						}
					],
					"name": "card",
					"outputs": [
						{
							"internalType": "bool",
							"name": "",
							"type": "bool"
						}
					],
					"stateMutability": "view",
					"type": "function"
				},
				{
					"inputs": [],
					"name": "pickcard",
					"outputs": [
						{
							"internalType": "uint16",
							"name": "",
							"type": "uint16"
						},
						{
							"internalType": "uint256",
							"name": "",
							"type": "uint256"
						},
						{
							"internalType": "uint16",
							"name": "",
							"type": "uint16"
						},
						{
							"internalType": "uint256",
							"name": "",
							"type": "uint256"
						}
					],
					"stateMutability": "nonpayable",
					"type": "function"
				}
			],
			"devdoc": {
				"kind": "dev",
				"methods": {},
				"version": 1
			},
			"evm": {
				"assembly": "    /* \"contract/pokar/pokar.sol\":60:661  contract pokar{... */\n  mstore(0x40, 0x80)\n  callvalue\n  dup1\n  iszero\n  tag_1\n  jumpi\n  0x00\n  dup1\n  revert\ntag_1:\n  pop\n  dataSize(sub_0)\n  dup1\n  dataOffset(sub_0)\n  0x00\n  codecopy\n  0x00\n  return\nstop\n\nsub_0: assembly {\n        /* \"contract/pokar/pokar.sol\":60:661  contract pokar{... */\n      mstore(0x40, 0x80)\n      callvalue\n      dup1\n      iszero\n      tag_1\n      jumpi\n      0x00\n      dup1\n      revert\n    tag_1:\n      pop\n      jumpi(tag_2, lt(calldatasize, 0x04))\n      shr(0xe0, calldataload(0x00))\n      dup1\n      0x801464b7\n      eq\n      tag_3\n      jumpi\n      dup1\n      0x8cdac16d\n      eq\n      tag_4\n      jumpi\n    tag_2:\n      0x00\n      dup1\n      revert\n        /* \"contract/pokar/pokar.sol\":111:576  function pickcard() public returns(uint16,uint256,uint16,uint256) {... */\n    tag_3:\n      tag_5\n      tag_6\n      jump\t// in\n    tag_5:\n      mload(0x40)\n      tag_7\n      swap5\n      swap4\n      swap3\n      swap2\n      swap1\n      tag_8\n      jump\t// in\n    tag_7:\n      mload(0x40)\n      dup1\n      swap2\n      sub\n      swap1\n      return\n        /* \"contract/pokar/pokar.sol\":81:104  bool[13][4] public card */\n    tag_4:\n      tag_9\n      0x04\n      dup1\n      calldatasize\n      sub\n      dup2\n      add\n      swap1\n      tag_10\n      swap2\n      swap1\n      tag_11\n      jump\t// in\n    tag_10:\n      tag_12\n      jump\t// in\n    tag_9:\n      mload(0x40)\n      tag_13\n      swap2\n      swap1\n      tag_14\n      jump\t// in\n    tag_13:\n      mload(0x40)\n      dup1\n      swap2\n      sub\n      swap1\n      return\n        /* \"contract/pokar/pokar.sol\":111:576  function pickcard() public returns(uint16,uint256,uint16,uint256) {... */\n    tag_6:\n        /* \"contract/pokar/pokar.sol\":146:152  uint16 */\n      0x00\n        /* \"contract/pokar/pokar.sol\":153:160  uint256 */\n      dup1\n        /* \"contract/pokar/pokar.sol\":161:167  uint16 */\n      0x00\n        /* \"contract/pokar/pokar.sol\":168:175  uint256 */\n      dup1\n        /* \"contract/pokar/pokar.sol\":188:202  uint256 random */\n      0x00\n        /* \"contract/pokar/pokar.sol\":259:266  1000000 */\n      0x0f4240\n        /* \"contract/pokar/pokar.sol\":240:255  block.timestamp */\n      timestamp\n        /* \"contract/pokar/pokar.sol\":223:256  abi.encodePacked(block.timestamp) */\n      add(0x20, mload(0x40))\n      tag_16\n      swap2\n      swap1\n      tag_17\n      jump\t// in\n    tag_16:\n      mload(0x40)\n      0x20\n      dup2\n      dup4\n      sub\n      sub\n      dup2\n      mstore\n      swap1\n      0x40\n      mstore\n        /* \"contract/pokar/pokar.sol\":213:257  keccak256(abi.encodePacked(block.timestamp)) */\n      dup1\n      mload\n      swap1\n      0x20\n      add\n      keccak256\n        /* \"contract/pokar/pokar.sol\":205:258  uint256(keccak256(abi.encodePacked(block.timestamp))) */\n      0x00\n      shr\n        /* \"contract/pokar/pokar.sol\":205:266  uint256(keccak256(abi.encodePacked(block.timestamp)))%1000000 */\n      tag_18\n      swap2\n      swap1\n      tag_19\n      jump\t// in\n    tag_18:\n        /* \"contract/pokar/pokar.sol\":188:266  uint256 random = uint256(keccak256(abi.encodePacked(block.timestamp)))%1000000 */\n      swap1\n      pop\n        /* \"contract/pokar/pokar.sol\":277:288  uint16 suit */\n      0x00\n        /* \"contract/pokar/pokar.sol\":306:309  100 */\n      0x64\n        /* \"contract/pokar/pokar.sol\":298:304  random */\n      dup3\n        /* \"contract/pokar/pokar.sol\":298:309  random %100 */\n      tag_20\n      swap2\n      swap1\n      tag_19\n      jump\t// in\n    tag_20:\n        /* \"contract/pokar/pokar.sol\":277:310  uint16 suit = uint16(random %100) */\n      swap1\n      pop\n        /* \"contract/pokar/pokar.sol\":330:333  100 */\n      0x64\n        /* \"contract/pokar/pokar.sol\":321:333  random /=100 */\n      dup3\n      tag_21\n      swap2\n      swap1\n      tag_22\n      jump\t// in\n    tag_21:\n      swap2\n      pop\n        /* \"contract/pokar/pokar.sol\":370:374  true */\n      0x01\n        /* \"contract/pokar/pokar.sol\":344:348  card */\n      0x00\n        /* \"contract/pokar/pokar.sol\":354:355  4 */\n      0x04\n        /* \"contract/pokar/pokar.sol\":349:353  suit */\n      dup4\n        /* \"contract/pokar/pokar.sol\":349:355  suit%4 */\n      tag_23\n      swap2\n      swap1\n      tag_24\n      jump\t// in\n    tag_23:\n        /* \"contract/pokar/pokar.sol\":344:356  card[suit%4] */\n      0xffff\n      and\n      0x04\n      dup2\n      lt\n      tag_25\n      jumpi\n      tag_26\n      tag_27\n      jump\t// in\n    tag_26:\n    tag_25:\n      add\n        /* \"contract/pokar/pokar.sol\":364:366  13 */\n      0x0d\n        /* \"contract/pokar/pokar.sol\":357:363  random */\n      dup5\n        /* \"contract/pokar/pokar.sol\":357:366  random%13 */\n      tag_29\n      swap2\n      swap1\n      tag_19\n      jump\t// in\n    tag_29:\n        /* \"contract/pokar/pokar.sol\":344:367  card[suit%4][random%13] */\n      0x0d\n      dup2\n      lt\n      tag_30\n      jumpi\n      tag_31\n      tag_27\n      jump\t// in\n    tag_31:\n    tag_30:\n      0x20\n      swap2\n      dup3\n      dup3\n      div\n      add\n      swap2\n      swap1\n      mod\n        /* \"contract/pokar/pokar.sol\":344:374  card[suit%4][random%13] = true */\n      0x0100\n      exp\n      dup2\n      sload\n      dup2\n      0xff\n      mul\n      not\n      and\n      swap1\n      dup4\n      iszero\n      iszero\n      mul\n      or\n      swap1\n      sstore\n      pop\n        /* \"contract/pokar/pokar.sol\":385:397  uint16 suit1 */\n      0x00\n        /* \"contract/pokar/pokar.sol\":403:404  4 */\n      0x04\n        /* \"contract/pokar/pokar.sol\":398:402  suit */\n      dup3\n        /* \"contract/pokar/pokar.sol\":398:404  suit%4 */\n      tag_33\n      swap2\n      swap1\n      tag_24\n      jump\t// in\n    tag_33:\n        /* \"contract/pokar/pokar.sol\":385:404  uint16 suit1=suit%4 */\n      swap1\n      pop\n        /* \"contract/pokar/pokar.sol\":415:428  uint256 card1 */\n      0x00\n        /* \"contract/pokar/pokar.sol\":436:438  13 */\n      0x0d\n        /* \"contract/pokar/pokar.sol\":429:435  random */\n      dup5\n        /* \"contract/pokar/pokar.sol\":429:438  random%13 */\n      tag_34\n      swap2\n      swap1\n      tag_19\n      jump\t// in\n    tag_34:\n        /* \"contract/pokar/pokar.sol\":415:438  uint256 card1=random%13 */\n      swap1\n      pop\n        /* \"contract/pokar/pokar.sol\":455:457  10 */\n      0x0a\n        /* \"contract/pokar/pokar.sol\":449:457  suit/=10 */\n      dup4\n      tag_35\n      swap2\n      swap1\n      tag_36\n      jump\t// in\n    tag_35:\n      swap3\n      pop\n        /* \"contract/pokar/pokar.sol\":476:479  100 */\n      0x64\n        /* \"contract/pokar/pokar.sol\":468:479  random/=100 */\n      dup5\n      tag_37\n      swap2\n      swap1\n      tag_22\n      jump\t// in\n    tag_37:\n      swap4\n      pop\n        /* \"contract/pokar/pokar.sol\":516:520  true */\n      0x01\n        /* \"contract/pokar/pokar.sol\":490:494  card */\n      0x00\n        /* \"contract/pokar/pokar.sol\":500:501  4 */\n      0x04\n        /* \"contract/pokar/pokar.sol\":495:499  suit */\n      dup6\n        /* \"contract/pokar/pokar.sol\":495:501  suit%4 */\n      tag_38\n      swap2\n      swap1\n      tag_24\n      jump\t// in\n    tag_38:\n        /* \"contract/pokar/pokar.sol\":490:502  card[suit%4] */\n      0xffff\n      and\n      0x04\n      dup2\n      lt\n      tag_39\n      jumpi\n      tag_40\n      tag_27\n      jump\t// in\n    tag_40:\n    tag_39:\n      add\n        /* \"contract/pokar/pokar.sol\":510:512  13 */\n      0x0d\n        /* \"contract/pokar/pokar.sol\":503:509  random */\n      dup7\n        /* \"contract/pokar/pokar.sol\":503:512  random%13 */\n      tag_42\n      swap2\n      swap1\n      tag_19\n      jump\t// in\n    tag_42:\n        /* \"contract/pokar/pokar.sol\":490:513  card[suit%4][random%13] */\n      0x0d\n      dup2\n      lt\n      tag_43\n      jumpi\n      tag_44\n      tag_27\n      jump\t// in\n    tag_44:\n    tag_43:\n      0x20\n      swap2\n      dup3\n      dup3\n      div\n      add\n      swap2\n      swap1\n      mod\n        /* \"contract/pokar/pokar.sol\":490:520  card[suit%4][random%13] = true */\n      0x0100\n      exp\n      dup2\n      sload\n      dup2\n      0xff\n      mul\n      not\n      and\n      swap1\n      dup4\n      iszero\n      iszero\n      mul\n      or\n      swap1\n      sstore\n      pop\n        /* \"contract/pokar/pokar.sol\":539:544  suit1 */\n      dup2\n        /* \"contract/pokar/pokar.sol\":545:550  card1 */\n      dup2\n        /* \"contract/pokar/pokar.sol\":556:557  4 */\n      0x04\n        /* \"contract/pokar/pokar.sol\":551:555  suit */\n      dup6\n        /* \"contract/pokar/pokar.sol\":551:557  suit%4 */\n      tag_46\n      swap2\n      swap1\n      tag_24\n      jump\t// in\n    tag_46:\n        /* \"contract/pokar/pokar.sol\":565:567  13 */\n      0x0d\n        /* \"contract/pokar/pokar.sol\":558:564  random */\n      dup8\n        /* \"contract/pokar/pokar.sol\":558:567  random%13 */\n      tag_47\n      swap2\n      swap1\n      tag_19\n      jump\t// in\n    tag_47:\n        /* \"contract/pokar/pokar.sol\":531:568  return (suit1,card1,suit%4,random%13) */\n      swap8\n      pop\n      swap8\n      pop\n      swap8\n      pop\n      swap8\n      pop\n      pop\n      pop\n      pop\n      pop\n        /* \"contract/pokar/pokar.sol\":111:576  function pickcard() public returns(uint16,uint256,uint16,uint256) {... */\n      swap1\n      swap2\n      swap3\n      swap4\n      jump\t// out\n        /* \"contract/pokar/pokar.sol\":81:104  bool[13][4] public card */\n    tag_12:\n      0x00\n      dup3\n      0x04\n      dup2\n      lt\n      tag_48\n      jumpi\n      0x00\n      dup1\n      revert\n    tag_48:\n      add\n      dup2\n      0x0d\n      dup2\n      lt\n      tag_50\n      jumpi\n      0x00\n      dup1\n      revert\n    tag_50:\n      0x20\n      swap2\n      dup3\n      dup3\n      div\n      add\n      swap2\n      swap1\n      mod\n      swap2\n      pop\n      swap2\n      pop\n      swap1\n      sload\n      swap1\n      0x0100\n      exp\n      swap1\n      div\n      0xff\n      and\n      dup2\n      jump\t// out\n        /* \"#utility.yul\":7:96   */\n    tag_52:\n        /* \"#utility.yul\":43:50   */\n      0x00\n        /* \"#utility.yul\":83:89   */\n      0xffff\n        /* \"#utility.yul\":76:81   */\n      dup3\n        /* \"#utility.yul\":72:90   */\n      and\n        /* \"#utility.yul\":61:90   */\n      swap1\n      pop\n        /* \"#utility.yul\":7:96   */\n      swap2\n      swap1\n      pop\n      jump\t// out\n        /* \"#utility.yul\":102:217   */\n    tag_53:\n        /* \"#utility.yul\":187:210   */\n      tag_70\n        /* \"#utility.yul\":204:209   */\n      dup2\n        /* \"#utility.yul\":187:210   */\n      tag_52\n      jump\t// in\n    tag_70:\n        /* \"#utility.yul\":182:185   */\n      dup3\n        /* \"#utility.yul\":175:211   */\n      mstore\n        /* \"#utility.yul\":102:217   */\n      pop\n      pop\n      jump\t// out\n        /* \"#utility.yul\":223:300   */\n    tag_54:\n        /* \"#utility.yul\":260:267   */\n      0x00\n        /* \"#utility.yul\":289:294   */\n      dup2\n        /* \"#utility.yul\":278:294   */\n      swap1\n      pop\n        /* \"#utility.yul\":223:300   */\n      swap2\n      swap1\n      pop\n      jump\t// out\n        /* \"#utility.yul\":306:424   */\n    tag_55:\n        /* \"#utility.yul\":393:417   */\n      tag_73\n        /* \"#utility.yul\":411:416   */\n      dup2\n        /* \"#utility.yul\":393:417   */\n      tag_54\n      jump\t// in\n    tag_73:\n        /* \"#utility.yul\":388:391   */\n      dup3\n        /* \"#utility.yul\":381:418   */\n      mstore\n        /* \"#utility.yul\":306:424   */\n      pop\n      pop\n      jump\t// out\n        /* \"#utility.yul\":430:975   */\n    tag_8:\n        /* \"#utility.yul\":603:607   */\n      0x00\n        /* \"#utility.yul\":641:644   */\n      0x80\n        /* \"#utility.yul\":630:639   */\n      dup3\n        /* \"#utility.yul\":626:645   */\n      add\n        /* \"#utility.yul\":618:645   */\n      swap1\n      pop\n        /* \"#utility.yul\":655:724   */\n      tag_75\n        /* \"#utility.yul\":721:722   */\n      0x00\n        /* \"#utility.yul\":710:719   */\n      dup4\n        /* \"#utility.yul\":706:723   */\n      add\n        /* \"#utility.yul\":697:703   */\n      dup8\n        /* \"#utility.yul\":655:724   */\n      tag_53\n      jump\t// in\n    tag_75:\n        /* \"#utility.yul\":734:806   */\n      tag_76\n        /* \"#utility.yul\":802:804   */\n      0x20\n        /* \"#utility.yul\":791:800   */\n      dup4\n        /* \"#utility.yul\":787:805   */\n      add\n        /* \"#utility.yul\":778:784   */\n      dup7\n        /* \"#utility.yul\":734:806   */\n      tag_55\n      jump\t// in\n    tag_76:\n        /* \"#utility.yul\":816:886   */\n      tag_77\n        /* \"#utility.yul\":882:884   */\n      0x40\n        /* \"#utility.yul\":871:880   */\n      dup4\n        /* \"#utility.yul\":867:885   */\n      add\n        /* \"#utility.yul\":858:864   */\n      dup6\n        /* \"#utility.yul\":816:886   */\n      tag_53\n      jump\t// in\n    tag_77:\n        /* \"#utility.yul\":896:968   */\n      tag_78\n        /* \"#utility.yul\":964:966   */\n      0x60\n        /* \"#utility.yul\":953:962   */\n      dup4\n        /* \"#utility.yul\":949:967   */\n      add\n        /* \"#utility.yul\":940:946   */\n      dup5\n        /* \"#utility.yul\":896:968   */\n      tag_55\n      jump\t// in\n    tag_78:\n        /* \"#utility.yul\":430:975   */\n      swap6\n      swap5\n      pop\n      pop\n      pop\n      pop\n      pop\n      jump\t// out\n        /* \"#utility.yul\":1062:1179   */\n    tag_57:\n        /* \"#utility.yul\":1171:1172   */\n      0x00\n        /* \"#utility.yul\":1168:1169   */\n      dup1\n        /* \"#utility.yul\":1161:1173   */\n      revert\n        /* \"#utility.yul\":1308:1430   */\n    tag_59:\n        /* \"#utility.yul\":1381:1405   */\n      tag_83\n        /* \"#utility.yul\":1399:1404   */\n      dup2\n        /* \"#utility.yul\":1381:1405   */\n      tag_54\n      jump\t// in\n    tag_83:\n        /* \"#utility.yul\":1374:1379   */\n      dup2\n        /* \"#utility.yul\":1371:1406   */\n      eq\n        /* \"#utility.yul\":1361:1424   */\n      tag_84\n      jumpi\n        /* \"#utility.yul\":1420:1421   */\n      0x00\n        /* \"#utility.yul\":1417:1418   */\n      dup1\n        /* \"#utility.yul\":1410:1422   */\n      revert\n        /* \"#utility.yul\":1361:1424   */\n    tag_84:\n        /* \"#utility.yul\":1308:1430   */\n      pop\n      jump\t// out\n        /* \"#utility.yul\":1436:1575   */\n    tag_60:\n        /* \"#utility.yul\":1482:1487   */\n      0x00\n        /* \"#utility.yul\":1520:1526   */\n      dup2\n        /* \"#utility.yul\":1507:1527   */\n      calldataload\n        /* \"#utility.yul\":1498:1527   */\n      swap1\n      pop\n        /* \"#utility.yul\":1536:1569   */\n      tag_86\n        /* \"#utility.yul\":1563:1568   */\n      dup2\n        /* \"#utility.yul\":1536:1569   */\n      tag_59\n      jump\t// in\n    tag_86:\n        /* \"#utility.yul\":1436:1575   */\n      swap3\n      swap2\n      pop\n      pop\n      jump\t// out\n        /* \"#utility.yul\":1581:2055   */\n    tag_11:\n        /* \"#utility.yul\":1649:1655   */\n      0x00\n        /* \"#utility.yul\":1657:1663   */\n      dup1\n        /* \"#utility.yul\":1706:1708   */\n      0x40\n        /* \"#utility.yul\":1694:1703   */\n      dup4\n        /* \"#utility.yul\":1685:1692   */\n      dup6\n        /* \"#utility.yul\":1681:1704   */\n      sub\n        /* \"#utility.yul\":1677:1709   */\n      slt\n        /* \"#utility.yul\":1674:1793   */\n      iszero\n      tag_88\n      jumpi\n        /* \"#utility.yul\":1712:1791   */\n      tag_89\n      tag_57\n      jump\t// in\n    tag_89:\n        /* \"#utility.yul\":1674:1793   */\n    tag_88:\n        /* \"#utility.yul\":1832:1833   */\n      0x00\n        /* \"#utility.yul\":1857:1910   */\n      tag_90\n        /* \"#utility.yul\":1902:1909   */\n      dup6\n        /* \"#utility.yul\":1893:1899   */\n      dup3\n        /* \"#utility.yul\":1882:1891   */\n      dup7\n        /* \"#utility.yul\":1878:1900   */\n      add\n        /* \"#utility.yul\":1857:1910   */\n      tag_60\n      jump\t// in\n    tag_90:\n        /* \"#utility.yul\":1847:1910   */\n      swap3\n      pop\n        /* \"#utility.yul\":1803:1920   */\n      pop\n        /* \"#utility.yul\":1959:1961   */\n      0x20\n        /* \"#utility.yul\":1985:2038   */\n      tag_91\n        /* \"#utility.yul\":2030:2037   */\n      dup6\n        /* \"#utility.yul\":2021:2027   */\n      dup3\n        /* \"#utility.yul\":2010:2019   */\n      dup7\n        /* \"#utility.yul\":2006:2028   */\n      add\n        /* \"#utility.yul\":1985:2038   */\n      tag_60\n      jump\t// in\n    tag_91:\n        /* \"#utility.yul\":1975:2038   */\n      swap2\n      pop\n        /* \"#utility.yul\":1930:2048   */\n      pop\n        /* \"#utility.yul\":1581:2055   */\n      swap3\n      pop\n      swap3\n      swap1\n      pop\n      jump\t// out\n        /* \"#utility.yul\":2061:2151   */\n    tag_61:\n        /* \"#utility.yul\":2095:2102   */\n      0x00\n        /* \"#utility.yul\":2138:2143   */\n      dup2\n        /* \"#utility.yul\":2131:2144   */\n      iszero\n        /* \"#utility.yul\":2124:2145   */\n      iszero\n        /* \"#utility.yul\":2113:2145   */\n      swap1\n      pop\n        /* \"#utility.yul\":2061:2151   */\n      swap2\n      swap1\n      pop\n      jump\t// out\n        /* \"#utility.yul\":2157:2266   */\n    tag_62:\n        /* \"#utility.yul\":2238:2259   */\n      tag_94\n        /* \"#utility.yul\":2253:2258   */\n      dup2\n        /* \"#utility.yul\":2238:2259   */\n      tag_61\n      jump\t// in\n    tag_94:\n        /* \"#utility.yul\":2233:2236   */\n      dup3\n        /* \"#utility.yul\":2226:2260   */\n      mstore\n        /* \"#utility.yul\":2157:2266   */\n      pop\n      pop\n      jump\t// out\n        /* \"#utility.yul\":2272:2482   */\n    tag_14:\n        /* \"#utility.yul\":2359:2363   */\n      0x00\n        /* \"#utility.yul\":2397:2399   */\n      0x20\n        /* \"#utility.yul\":2386:2395   */\n      dup3\n        /* \"#utility.yul\":2382:2400   */\n      add\n        /* \"#utility.yul\":2374:2400   */\n      swap1\n      pop\n        /* \"#utility.yul\":2410:2475   */\n      tag_96\n        /* \"#utility.yul\":2472:2473   */\n      0x00\n        /* \"#utility.yul\":2461:2470   */\n      dup4\n        /* \"#utility.yul\":2457:2474   */\n      add\n        /* \"#utility.yul\":2448:2454   */\n      dup5\n        /* \"#utility.yul\":2410:2475   */\n      tag_62\n      jump\t// in\n    tag_96:\n        /* \"#utility.yul\":2272:2482   */\n      swap3\n      swap2\n      pop\n      pop\n      jump\t// out\n        /* \"#utility.yul\":2488:2567   */\n    tag_63:\n        /* \"#utility.yul\":2527:2534   */\n      0x00\n        /* \"#utility.yul\":2556:2561   */\n      dup2\n        /* \"#utility.yul\":2545:2561   */\n      swap1\n      pop\n        /* \"#utility.yul\":2488:2567   */\n      swap2\n      swap1\n      pop\n      jump\t// out\n        /* \"#utility.yul\":2573:2730   */\n    tag_64:\n        /* \"#utility.yul\":2678:2723   */\n      tag_99\n        /* \"#utility.yul\":2698:2722   */\n      tag_100\n        /* \"#utility.yul\":2716:2721   */\n      dup3\n        /* \"#utility.yul\":2698:2722   */\n      tag_54\n      jump\t// in\n    tag_100:\n        /* \"#utility.yul\":2678:2723   */\n      tag_63\n      jump\t// in\n    tag_99:\n        /* \"#utility.yul\":2673:2676   */\n      dup3\n        /* \"#utility.yul\":2666:2724   */\n      mstore\n        /* \"#utility.yul\":2573:2730   */\n      pop\n      pop\n      jump\t// out\n        /* \"#utility.yul\":2736:2992   */\n    tag_17:\n        /* \"#utility.yul\":2848:2851   */\n      0x00\n        /* \"#utility.yul\":2863:2938   */\n      tag_102\n        /* \"#utility.yul\":2934:2937   */\n      dup3\n        /* \"#utility.yul\":2925:2931   */\n      dup5\n        /* \"#utility.yul\":2863:2938   */\n      tag_64\n      jump\t// in\n    tag_102:\n        /* \"#utility.yul\":2963:2965   */\n      0x20\n        /* \"#utility.yul\":2958:2961   */\n      dup3\n        /* \"#utility.yul\":2954:2966   */\n      add\n        /* \"#utility.yul\":2947:2966   */\n      swap2\n      pop\n        /* \"#utility.yul\":2983:2986   */\n      dup2\n        /* \"#utility.yul\":2976:2986   */\n      swap1\n      pop\n        /* \"#utility.yul\":2736:2992   */\n      swap3\n      swap2\n      pop\n      pop\n      jump\t// out\n        /* \"#utility.yul\":2998:3178   */\n    tag_65:\n        /* \"#utility.yul\":3046:3123   */\n      0x4e487b7100000000000000000000000000000000000000000000000000000000\n        /* \"#utility.yul\":3043:3044   */\n      0x00\n        /* \"#utility.yul\":3036:3124   */\n      mstore\n        /* \"#utility.yul\":3143:3147   */\n      0x12\n        /* \"#utility.yul\":3140:3141   */\n      0x04\n        /* \"#utility.yul\":3133:3148   */\n      mstore\n        /* \"#utility.yul\":3167:3171   */\n      0x24\n        /* \"#utility.yul\":3164:3165   */\n      0x00\n        /* \"#utility.yul\":3157:3172   */\n      revert\n        /* \"#utility.yul\":3184:3360   */\n    tag_19:\n        /* \"#utility.yul\":3216:3217   */\n      0x00\n        /* \"#utility.yul\":3233:3253   */\n      tag_105\n        /* \"#utility.yul\":3251:3252   */\n      dup3\n        /* \"#utility.yul\":3233:3253   */\n      tag_54\n      jump\t// in\n    tag_105:\n        /* \"#utility.yul\":3228:3253   */\n      swap2\n      pop\n        /* \"#utility.yul\":3267:3287   */\n      tag_106\n        /* \"#utility.yul\":3285:3286   */\n      dup4\n        /* \"#utility.yul\":3267:3287   */\n      tag_54\n      jump\t// in\n    tag_106:\n        /* \"#utility.yul\":3262:3287   */\n      swap3\n      pop\n        /* \"#utility.yul\":3306:3307   */\n      dup3\n        /* \"#utility.yul\":3296:3331   */\n      tag_107\n      jumpi\n        /* \"#utility.yul\":3311:3329   */\n      tag_108\n      tag_65\n      jump\t// in\n    tag_108:\n        /* \"#utility.yul\":3296:3331   */\n    tag_107:\n        /* \"#utility.yul\":3352:3353   */\n      dup3\n        /* \"#utility.yul\":3349:3350   */\n      dup3\n        /* \"#utility.yul\":3345:3354   */\n      mod\n        /* \"#utility.yul\":3340:3354   */\n      swap1\n      pop\n        /* \"#utility.yul\":3184:3360   */\n      swap3\n      swap2\n      pop\n      pop\n      jump\t// out\n        /* \"#utility.yul\":3552:3737   */\n    tag_22:\n        /* \"#utility.yul\":3592:3593   */\n      0x00\n        /* \"#utility.yul\":3609:3629   */\n      tag_111\n        /* \"#utility.yul\":3627:3628   */\n      dup3\n        /* \"#utility.yul\":3609:3629   */\n      tag_54\n      jump\t// in\n    tag_111:\n        /* \"#utility.yul\":3604:3629   */\n      swap2\n      pop\n        /* \"#utility.yul\":3643:3663   */\n      tag_112\n        /* \"#utility.yul\":3661:3662   */\n      dup4\n        /* \"#utility.yul\":3643:3663   */\n      tag_54\n      jump\t// in\n    tag_112:\n        /* \"#utility.yul\":3638:3663   */\n      swap3\n      pop\n        /* \"#utility.yul\":3682:3683   */\n      dup3\n        /* \"#utility.yul\":3672:3707   */\n      tag_113\n      jumpi\n        /* \"#utility.yul\":3687:3705   */\n      tag_114\n      tag_65\n      jump\t// in\n    tag_114:\n        /* \"#utility.yul\":3672:3707   */\n    tag_113:\n        /* \"#utility.yul\":3729:3730   */\n      dup3\n        /* \"#utility.yul\":3726:3727   */\n      dup3\n        /* \"#utility.yul\":3722:3731   */\n      div\n        /* \"#utility.yul\":3717:3731   */\n      swap1\n      pop\n        /* \"#utility.yul\":3552:3737   */\n      swap3\n      swap2\n      pop\n      pop\n      jump\t// out\n        /* \"#utility.yul\":3743:3916   */\n    tag_24:\n        /* \"#utility.yul\":3774:3775   */\n      0x00\n        /* \"#utility.yul\":3791:3810   */\n      tag_116\n        /* \"#utility.yul\":3808:3809   */\n      dup3\n        /* \"#utility.yul\":3791:3810   */\n      tag_52\n      jump\t// in\n    tag_116:\n        /* \"#utility.yul\":3786:3810   */\n      swap2\n      pop\n        /* \"#utility.yul\":3824:3843   */\n      tag_117\n        /* \"#utility.yul\":3841:3842   */\n      dup4\n        /* \"#utility.yul\":3824:3843   */\n      tag_52\n      jump\t// in\n    tag_117:\n        /* \"#utility.yul\":3819:3843   */\n      swap3\n      pop\n        /* \"#utility.yul\":3862:3863   */\n      dup3\n        /* \"#utility.yul\":3852:3887   */\n      tag_118\n      jumpi\n        /* \"#utility.yul\":3867:3885   */\n      tag_119\n      tag_65\n      jump\t// in\n    tag_119:\n        /* \"#utility.yul\":3852:3887   */\n    tag_118:\n        /* \"#utility.yul\":3908:3909   */\n      dup3\n        /* \"#utility.yul\":3905:3906   */\n      dup3\n        /* \"#utility.yul\":3901:3910   */\n      mod\n        /* \"#utility.yul\":3896:3910   */\n      swap1\n      pop\n        /* \"#utility.yul\":3743:3916   */\n      swap3\n      swap2\n      pop\n      pop\n      jump\t// out\n        /* \"#utility.yul\":3922:4102   */\n    tag_27:\n        /* \"#utility.yul\":3970:4047   */\n      0x4e487b7100000000000000000000000000000000000000000000000000000000\n        /* \"#utility.yul\":3967:3968   */\n      0x00\n        /* \"#utility.yul\":3960:4048   */\n      mstore\n        /* \"#utility.yul\":4067:4071   */\n      0x32\n        /* \"#utility.yul\":4064:4065   */\n      0x04\n        /* \"#utility.yul\":4057:4072   */\n      mstore\n        /* \"#utility.yul\":4091:4095   */\n      0x24\n        /* \"#utility.yul\":4088:4089   */\n      0x00\n        /* \"#utility.yul\":4081:4096   */\n      revert\n        /* \"#utility.yul\":4108:4290   */\n    tag_36:\n        /* \"#utility.yul\":4147:4148   */\n      0x00\n        /* \"#utility.yul\":4164:4183   */\n      tag_122\n        /* \"#utility.yul\":4181:4182   */\n      dup3\n        /* \"#utility.yul\":4164:4183   */\n      tag_52\n      jump\t// in\n    tag_122:\n        /* \"#utility.yul\":4159:4183   */\n      swap2\n      pop\n        /* \"#utility.yul\":4197:4216   */\n      tag_123\n        /* \"#utility.yul\":4214:4215   */\n      dup4\n        /* \"#utility.yul\":4197:4216   */\n      tag_52\n      jump\t// in\n    tag_123:\n        /* \"#utility.yul\":4192:4216   */\n      swap3\n      pop\n        /* \"#utility.yul\":4235:4236   */\n      dup3\n        /* \"#utility.yul\":4225:4260   */\n      tag_124\n      jumpi\n        /* \"#utility.yul\":4240:4258   */\n      tag_125\n      tag_65\n      jump\t// in\n    tag_125:\n        /* \"#utility.yul\":4225:4260   */\n    tag_124:\n        /* \"#utility.yul\":4282:4283   */\n      dup3\n        /* \"#utility.yul\":4279:4280   */\n      dup3\n        /* \"#utility.yul\":4275:4284   */\n      div\n        /* \"#utility.yul\":4270:4284   */\n      swap1\n      pop\n        /* \"#utility.yul\":4108:4290   */\n      swap3\n      swap2\n      pop\n      pop\n      jump\t// out\n\n    auxdata: 0xa26469706673582212206e2fc64946c0a4551fd8024abceba8aaeb17fd6a3712cf324345c5f559cc0e6d64736f6c634300081a0033\n}\n",
				"bytecode": {
					"linkReferences": {},
					"object": "6080604052348015600e575f80fd5b506104f18061001c5f395ff3fe608060405234801561000f575f80fd5b5060043610610034575f3560e01c8063801464b7146100385780638cdac16d14610059575b5f80fd5b610040610089565b6040516100509493929190610285565b60405180910390f35b610073600480360381019061006e91906102f6565b610218565b604051610080919061034e565b60405180910390f35b5f805f805f620f4240426040516020016100a39190610387565b604051602081830303815290604052805190602001205f1c6100c591906103ce565b90505f6064826100d591906103ce565b90506064826100e491906103fe565b915060015f6004836100f6919061042e565b61ffff166004811061010b5761010a61045e565b5b01600d8461011991906103ce565b600d811061012a5761012961045e565b5b602091828204019190066101000a81548160ff0219169083151502179055505f600482610157919061042e565b90505f600d8461016791906103ce565b9050600a83610176919061048b565b925060648461018591906103fe565b935060015f600485610197919061042e565b61ffff16600481106101ac576101ab61045e565b5b01600d866101ba91906103ce565b600d81106101cb576101ca61045e565b5b602091828204019190066101000a81548160ff02191690831515021790555081816004856101f9919061042e565b600d8761020691906103ce565b97509750975097505050505090919293565b5f8260048110610226575f80fd5b0181600d8110610234575f80fd5b60209182820401919006915091509054906101000a900460ff1681565b5f61ffff82169050919050565b61026781610251565b82525050565b5f819050919050565b61027f8161026d565b82525050565b5f6080820190506102985f83018761025e565b6102a56020830186610276565b6102b2604083018561025e565b6102bf6060830184610276565b95945050505050565b5f80fd5b6102d58161026d565b81146102df575f80fd5b50565b5f813590506102f0816102cc565b92915050565b5f806040838503121561030c5761030b6102c8565b5b5f610319858286016102e2565b925050602061032a858286016102e2565b9150509250929050565b5f8115159050919050565b61034881610334565b82525050565b5f6020820190506103615f83018461033f565b92915050565b5f819050919050565b61038161037c8261026d565b610367565b82525050565b5f6103928284610370565b60208201915081905092915050565b7f4e487b71000000000000000000000000000000000000000000000000000000005f52601260045260245ffd5b5f6103d88261026d565b91506103e38361026d565b9250826103f3576103f26103a1565b5b828206905092915050565b5f6104088261026d565b91506104138361026d565b925082610423576104226103a1565b5b828204905092915050565b5f61043882610251565b915061044383610251565b925082610453576104526103a1565b5b828206905092915050565b7f4e487b71000000000000000000000000000000000000000000000000000000005f52603260045260245ffd5b5f61049582610251565b91506104a083610251565b9250826104b0576104af6103a1565b5b82820490509291505056fea26469706673582212206e2fc64946c0a4551fd8024abceba8aaeb17fd6a3712cf324345c5f559cc0e6d64736f6c634300081a0033",
					"opcodes": "PUSH1 0x80 PUSH1 0x40 MSTORE CALLVALUE DUP1 ISZERO PUSH1 0xE JUMPI PUSH0 DUP1 REVERT JUMPDEST POP PUSH2 0x4F1 DUP1 PUSH2 0x1C PUSH0 CODECOPY PUSH0 RETURN INVALID PUSH1 0x80 PUSH1 0x40 MSTORE CALLVALUE DUP1 ISZERO PUSH2 0xF JUMPI PUSH0 DUP1 REVERT JUMPDEST POP PUSH1 0x4 CALLDATASIZE LT PUSH2 0x34 JUMPI PUSH0 CALLDATALOAD PUSH1 0xE0 SHR DUP1 PUSH4 0x801464B7 EQ PUSH2 0x38 JUMPI DUP1 PUSH4 0x8CDAC16D EQ PUSH2 0x59 JUMPI JUMPDEST PUSH0 DUP1 REVERT JUMPDEST PUSH2 0x40 PUSH2 0x89 JUMP JUMPDEST PUSH1 0x40 MLOAD PUSH2 0x50 SWAP5 SWAP4 SWAP3 SWAP2 SWAP1 PUSH2 0x285 JUMP JUMPDEST PUSH1 0x40 MLOAD DUP1 SWAP2 SUB SWAP1 RETURN JUMPDEST PUSH2 0x73 PUSH1 0x4 DUP1 CALLDATASIZE SUB DUP2 ADD SWAP1 PUSH2 0x6E SWAP2 SWAP1 PUSH2 0x2F6 JUMP JUMPDEST PUSH2 0x218 JUMP JUMPDEST PUSH1 0x40 MLOAD PUSH2 0x80 SWAP2 SWAP1 PUSH2 0x34E JUMP JUMPDEST PUSH1 0x40 MLOAD DUP1 SWAP2 SUB SWAP1 RETURN JUMPDEST PUSH0 DUP1 PUSH0 DUP1 PUSH0 PUSH3 0xF4240 TIMESTAMP PUSH1 0x40 MLOAD PUSH1 0x20 ADD PUSH2 0xA3 SWAP2 SWAP1 PUSH2 0x387 JUMP JUMPDEST PUSH1 0x40 MLOAD PUSH1 0x20 DUP2 DUP4 SUB SUB DUP2 MSTORE SWAP1 PUSH1 0x40 MSTORE DUP1 MLOAD SWAP1 PUSH1 0x20 ADD KECCAK256 PUSH0 SHR PUSH2 0xC5 SWAP2 SWAP1 PUSH2 0x3CE JUMP JUMPDEST SWAP1 POP PUSH0 PUSH1 0x64 DUP3 PUSH2 0xD5 SWAP2 SWAP1 PUSH2 0x3CE JUMP JUMPDEST SWAP1 POP PUSH1 0x64 DUP3 PUSH2 0xE4 SWAP2 SWAP1 PUSH2 0x3FE JUMP JUMPDEST SWAP2 POP PUSH1 0x1 PUSH0 PUSH1 0x4 DUP4 PUSH2 0xF6 SWAP2 SWAP1 PUSH2 0x42E JUMP JUMPDEST PUSH2 0xFFFF AND PUSH1 0x4 DUP2 LT PUSH2 0x10B JUMPI PUSH2 0x10A PUSH2 0x45E JUMP JUMPDEST JUMPDEST ADD PUSH1 0xD DUP5 PUSH2 0x119 SWAP2 SWAP1 PUSH2 0x3CE JUMP JUMPDEST PUSH1 0xD DUP2 LT PUSH2 0x12A JUMPI PUSH2 0x129 PUSH2 0x45E JUMP JUMPDEST JUMPDEST PUSH1 0x20 SWAP2 DUP3 DUP3 DIV ADD SWAP2 SWAP1 MOD PUSH2 0x100 EXP DUP2 SLOAD DUP2 PUSH1 0xFF MUL NOT AND SWAP1 DUP4 ISZERO ISZERO MUL OR SWAP1 SSTORE POP PUSH0 PUSH1 0x4 DUP3 PUSH2 0x157 SWAP2 SWAP1 PUSH2 0x42E JUMP JUMPDEST SWAP1 POP PUSH0 PUSH1 0xD DUP5 PUSH2 0x167 SWAP2 SWAP1 PUSH2 0x3CE JUMP JUMPDEST SWAP1 POP PUSH1 0xA DUP4 PUSH2 0x176 SWAP2 SWAP1 PUSH2 0x48B JUMP JUMPDEST SWAP3 POP PUSH1 0x64 DUP5 PUSH2 0x185 SWAP2 SWAP1 PUSH2 0x3FE JUMP JUMPDEST SWAP4 POP PUSH1 0x1 PUSH0 PUSH1 0x4 DUP6 PUSH2 0x197 SWAP2 SWAP1 PUSH2 0x42E JUMP JUMPDEST PUSH2 0xFFFF AND PUSH1 0x4 DUP2 LT PUSH2 0x1AC JUMPI PUSH2 0x1AB PUSH2 0x45E JUMP JUMPDEST JUMPDEST ADD PUSH1 0xD DUP7 PUSH2 0x1BA SWAP2 SWAP1 PUSH2 0x3CE JUMP JUMPDEST PUSH1 0xD DUP2 LT PUSH2 0x1CB JUMPI PUSH2 0x1CA PUSH2 0x45E JUMP JUMPDEST JUMPDEST PUSH1 0x20 SWAP2 DUP3 DUP3 DIV ADD SWAP2 SWAP1 MOD PUSH2 0x100 EXP DUP2 SLOAD DUP2 PUSH1 0xFF MUL NOT AND SWAP1 DUP4 ISZERO ISZERO MUL OR SWAP1 SSTORE POP DUP2 DUP2 PUSH1 0x4 DUP6 PUSH2 0x1F9 SWAP2 SWAP1 PUSH2 0x42E JUMP JUMPDEST PUSH1 0xD DUP8 PUSH2 0x206 SWAP2 SWAP1 PUSH2 0x3CE JUMP JUMPDEST SWAP8 POP SWAP8 POP SWAP8 POP SWAP8 POP POP POP POP POP SWAP1 SWAP2 SWAP3 SWAP4 JUMP JUMPDEST PUSH0 DUP3 PUSH1 0x4 DUP2 LT PUSH2 0x226 JUMPI PUSH0 DUP1 REVERT JUMPDEST ADD DUP2 PUSH1 0xD DUP2 LT PUSH2 0x234 JUMPI PUSH0 DUP1 REVERT JUMPDEST PUSH1 0x20 SWAP2 DUP3 DUP3 DIV ADD SWAP2 SWAP1 MOD SWAP2 POP SWAP2 POP SWAP1 SLOAD SWAP1 PUSH2 0x100 EXP SWAP1 DIV PUSH1 0xFF AND DUP2 JUMP JUMPDEST PUSH0 PUSH2 0xFFFF DUP3 AND SWAP1 POP SWAP2 SWAP1 POP JUMP JUMPDEST PUSH2 0x267 DUP2 PUSH2 0x251 JUMP JUMPDEST DUP3 MSTORE POP POP JUMP JUMPDEST PUSH0 DUP2 SWAP1 POP SWAP2 SWAP1 POP JUMP JUMPDEST PUSH2 0x27F DUP2 PUSH2 0x26D JUMP JUMPDEST DUP3 MSTORE POP POP JUMP JUMPDEST PUSH0 PUSH1 0x80 DUP3 ADD SWAP1 POP PUSH2 0x298 PUSH0 DUP4 ADD DUP8 PUSH2 0x25E JUMP JUMPDEST PUSH2 0x2A5 PUSH1 0x20 DUP4 ADD DUP7 PUSH2 0x276 JUMP JUMPDEST PUSH2 0x2B2 PUSH1 0x40 DUP4 ADD DUP6 PUSH2 0x25E JUMP JUMPDEST PUSH2 0x2BF PUSH1 0x60 DUP4 ADD DUP5 PUSH2 0x276 JUMP JUMPDEST SWAP6 SWAP5 POP POP POP POP POP JUMP JUMPDEST PUSH0 DUP1 REVERT JUMPDEST PUSH2 0x2D5 DUP2 PUSH2 0x26D JUMP JUMPDEST DUP2 EQ PUSH2 0x2DF JUMPI PUSH0 DUP1 REVERT JUMPDEST POP JUMP JUMPDEST PUSH0 DUP2 CALLDATALOAD SWAP1 POP PUSH2 0x2F0 DUP2 PUSH2 0x2CC JUMP JUMPDEST SWAP3 SWAP2 POP POP JUMP JUMPDEST PUSH0 DUP1 PUSH1 0x40 DUP4 DUP6 SUB SLT ISZERO PUSH2 0x30C JUMPI PUSH2 0x30B PUSH2 0x2C8 JUMP JUMPDEST JUMPDEST PUSH0 PUSH2 0x319 DUP6 DUP3 DUP7 ADD PUSH2 0x2E2 JUMP JUMPDEST SWAP3 POP POP PUSH1 0x20 PUSH2 0x32A DUP6 DUP3 DUP7 ADD PUSH2 0x2E2 JUMP JUMPDEST SWAP2 POP POP SWAP3 POP SWAP3 SWAP1 POP JUMP JUMPDEST PUSH0 DUP2 ISZERO ISZERO SWAP1 POP SWAP2 SWAP1 POP JUMP JUMPDEST PUSH2 0x348 DUP2 PUSH2 0x334 JUMP JUMPDEST DUP3 MSTORE POP POP JUMP JUMPDEST PUSH0 PUSH1 0x20 DUP3 ADD SWAP1 POP PUSH2 0x361 PUSH0 DUP4 ADD DUP5 PUSH2 0x33F JUMP JUMPDEST SWAP3 SWAP2 POP POP JUMP JUMPDEST PUSH0 DUP2 SWAP1 POP SWAP2 SWAP1 POP JUMP JUMPDEST PUSH2 0x381 PUSH2 0x37C DUP3 PUSH2 0x26D JUMP JUMPDEST PUSH2 0x367 JUMP JUMPDEST DUP3 MSTORE POP POP JUMP JUMPDEST PUSH0 PUSH2 0x392 DUP3 DUP5 PUSH2 0x370 JUMP JUMPDEST PUSH1 0x20 DUP3 ADD SWAP2 POP DUP2 SWAP1 POP SWAP3 SWAP2 POP POP JUMP JUMPDEST PUSH32 0x4E487B7100000000000000000000000000000000000000000000000000000000 PUSH0 MSTORE PUSH1 0x12 PUSH1 0x4 MSTORE PUSH1 0x24 PUSH0 REVERT JUMPDEST PUSH0 PUSH2 0x3D8 DUP3 PUSH2 0x26D JUMP JUMPDEST SWAP2 POP PUSH2 0x3E3 DUP4 PUSH2 0x26D JUMP JUMPDEST SWAP3 POP DUP3 PUSH2 0x3F3 JUMPI PUSH2 0x3F2 PUSH2 0x3A1 JUMP JUMPDEST JUMPDEST DUP3 DUP3 MOD SWAP1 POP SWAP3 SWAP2 POP POP JUMP JUMPDEST PUSH0 PUSH2 0x408 DUP3 PUSH2 0x26D JUMP JUMPDEST SWAP2 POP PUSH2 0x413 DUP4 PUSH2 0x26D JUMP JUMPDEST SWAP3 POP DUP3 PUSH2 0x423 JUMPI PUSH2 0x422 PUSH2 0x3A1 JUMP JUMPDEST JUMPDEST DUP3 DUP3 DIV SWAP1 POP SWAP3 SWAP2 POP POP JUMP JUMPDEST PUSH0 PUSH2 0x438 DUP3 PUSH2 0x251 JUMP JUMPDEST SWAP2 POP PUSH2 0x443 DUP4 PUSH2 0x251 JUMP JUMPDEST SWAP3 POP DUP3 PUSH2 0x453 JUMPI PUSH2 0x452 PUSH2 0x3A1 JUMP JUMPDEST JUMPDEST DUP3 DUP3 MOD SWAP1 POP SWAP3 SWAP2 POP POP JUMP JUMPDEST PUSH32 0x4E487B7100000000000000000000000000000000000000000000000000000000 PUSH0 MSTORE PUSH1 0x32 PUSH1 0x4 MSTORE PUSH1 0x24 PUSH0 REVERT JUMPDEST PUSH0 PUSH2 0x495 DUP3 PUSH2 0x251 JUMP JUMPDEST SWAP2 POP PUSH2 0x4A0 DUP4 PUSH2 0x251 JUMP JUMPDEST SWAP3 POP DUP3 PUSH2 0x4B0 JUMPI PUSH2 0x4AF PUSH2 0x3A1 JUMP JUMPDEST JUMPDEST DUP3 DUP3 DIV SWAP1 POP SWAP3 SWAP2 POP POP JUMP INVALID LOG2 PUSH5 0x6970667358 0x22 SLT KECCAK256 PUSH15 0x2FC64946C0A4551FD8024ABCEBA8AA 0xEB OR REVERT PUSH11 0x3712CF324345C5F559CC0E PUSH14 0x64736F6C634300081A0033000000 "
				},
				"gasEstimates": {
					"creation": {
						"codeDepositCost": "253000",
						"executionCost": "292",
						"totalCost": "253292"
					},
					"external": {
						"card(uint256,uint256)": "infinite",
						"pickcard()": "infinite"
					}
				},
				"methodIdentifiers": {
					"card(uint256,uint256)": "8cdac16d",
					"pickcard()": "801464b7"
				}
			},
			"storageLayout": {
				"storage": [
					{
						"astId": 7,
						"contract": "contract/pokar/pokar.sol:pokar",
						"label": "card",
						"offset": 0,
						"slot": "0",
						"type": "t_array(t_array(t_bool)13_storage)4_storage"
					}
				],
				"types": {
					"t_array(t_array(t_bool)13_storage)4_storage": {
						"base": "t_array(t_bool)13_storage",
						"encoding": "inplace",
						"label": "bool[13][4]",
						"numberOfBytes": "128"
					},
					"t_array(t_bool)13_storage": {
						"base": "t_bool",
						"encoding": "inplace",
						"label": "bool[13]",
						"numberOfBytes": "32"
					},
					"t_bool": {
						"encoding": "inplace",
						"label": "bool",
						"numberOfBytes": "1"
					}
				}
			},
			"userdoc": {
				"kind": "user",
				"methods": {},
				"version": 1
			}
		}
	}
}