{
	"contract/pokar/pokar.sol": {
		"pokar": {
			"abi": [
				{
					"inputs": [
						{
							"internalType": "uint256",
							"name": "",
							"type": "uint256"
						},
						{
							"internalType": "uint256",
							"name": "",
							"type": "uint256"
						}
					],
					"name": "card",
					"outputs": [
						{
							"internalType": "bool",
							"name": "",
							"type": "bool"
						}
					],
					"stateMutability": "view",
					"type": "function"
				},
				{
					"inputs": [
						{
							"internalType": "uint256",
							"name": "row",
							"type": "uint256"
						},
						{
							"internalType": "uint256",
							"name": "col",
							"type": "uint256"
						},
						{
							"internalType": "bool",
							"name": "value",
							"type": "bool"
						}
					],
					"name": "first",
					"outputs": [],
					"stateMutability": "nonpayable",
					"type": "function"
				},
				{
					"inputs": [
						{
							"internalType": "bool[13][4]",
							"name": "prevcard",
							"type": "bool[13][4]"
						}
					],
					"name": "second",
					"outputs": [],
					"stateMutability": "nonpayable",
					"type": "function"
				}
			],
			"devdoc": {
				"kind": "dev",
				"methods": {},
				"version": 1
			},
			"evm": {
				"assembly": "    /* \"contract/pokar/pokar.sol\":60:281  contract pokar{... */\n  mstore(0x40, 0x80)\n  callvalue\n  dup1\n  iszero\n  tag_1\n  jumpi\n  0x00\n  dup1\n  revert\ntag_1:\n  pop\n  dataSize(sub_0)\n  dup1\n  dataOffset(sub_0)\n  0x00\n  codecopy\n  0x00\n  return\nstop\n\nsub_0: assembly {\n        /* \"contract/pokar/pokar.sol\":60:281  contract pokar{... */\n      mstore(0x40, 0x80)\n      callvalue\n      dup1\n      iszero\n      tag_1\n      jumpi\n      0x00\n      dup1\n      revert\n    tag_1:\n      pop\n      jumpi(tag_2, lt(calldatasize, 0x04))\n      shr(0xe0, calldataload(0x00))\n      dup1\n      0x8cdac16d\n      eq\n      tag_3\n      jumpi\n      dup1\n      0xe279890a\n      eq\n      tag_4\n      jumpi\n      dup1\n      0xee4953e1\n      eq\n      tag_5\n      jumpi\n    tag_2:\n      0x00\n      dup1\n      revert\n        /* \"contract/pokar/pokar.sol\":81:104  bool[13][4] public card */\n    tag_3:\n      tag_6\n      0x04\n      dup1\n      calldatasize\n      sub\n      dup2\n      add\n      swap1\n      tag_7\n      swap2\n      swap1\n      tag_8\n      jump\t// in\n    tag_7:\n      tag_9\n      jump\t// in\n    tag_6:\n      mload(0x40)\n      tag_10\n      swap2\n      swap1\n      tag_11\n      jump\t// in\n    tag_10:\n      mload(0x40)\n      dup1\n      swap2\n      sub\n      swap1\n      return\n        /* \"contract/pokar/pokar.sol\":208:278  function second(bool[13][4] memory prevcard) public {... */\n    tag_4:\n      tag_12\n      0x04\n      dup1\n      calldatasize\n      sub\n      dup2\n      add\n      swap1\n      tag_13\n      swap2\n      swap1\n      tag_14\n      jump\t// in\n    tag_13:\n      tag_15\n      jump\t// in\n    tag_12:\n      stop\n        /* \"contract/pokar/pokar.sol\":111:202  function first(uint row,uint col,bool value) public {... */\n    tag_5:\n      tag_16\n      0x04\n      dup1\n      calldatasize\n      sub\n      dup2\n      add\n      swap1\n      tag_17\n      swap2\n      swap1\n      tag_18\n      jump\t// in\n    tag_17:\n      tag_19\n      jump\t// in\n    tag_16:\n      stop\n        /* \"contract/pokar/pokar.sol\":81:104  bool[13][4] public card */\n    tag_9:\n      0x00\n      dup3\n      0x04\n      dup2\n      lt\n      tag_20\n      jumpi\n      0x00\n      dup1\n      revert\n    tag_20:\n      add\n      dup2\n      0x0d\n      dup2\n      lt\n      tag_22\n      jumpi\n      0x00\n      dup1\n      revert\n    tag_22:\n      0x20\n      swap2\n      dup3\n      dup3\n      div\n      add\n      swap2\n      swap1\n      mod\n      swap2\n      pop\n      swap2\n      pop\n      swap1\n      sload\n      swap1\n      0x0100\n      exp\n      swap1\n      div\n      0xff\n      and\n      dup2\n      jump\t// out\n        /* \"contract/pokar/pokar.sol\":208:278  function second(bool[13][4] memory prevcard) public {... */\n    tag_15:\n      pop\n      jump\t// out\n        /* \"contract/pokar/pokar.sol\":111:202  function first(uint row,uint col,bool value) public {... */\n    tag_19:\n        /* \"contract/pokar/pokar.sol\":189:194  value */\n      dup1\n        /* \"contract/pokar/pokar.sol\":174:178  card */\n      0x00\n        /* \"contract/pokar/pokar.sol\":179:182  row */\n      dup5\n        /* \"contract/pokar/pokar.sol\":174:183  card[row] */\n      0x04\n      dup2\n      lt\n      tag_26\n      jumpi\n      tag_27\n      tag_28\n      jump\t// in\n    tag_27:\n    tag_26:\n      add\n        /* \"contract/pokar/pokar.sol\":184:187  col */\n      dup4\n        /* \"contract/pokar/pokar.sol\":174:188  card[row][col] */\n      0x0d\n      dup2\n      lt\n      tag_30\n      jumpi\n      tag_31\n      tag_28\n      jump\t// in\n    tag_31:\n    tag_30:\n      0x20\n      swap2\n      dup3\n      dup3\n      div\n      add\n      swap2\n      swap1\n      mod\n        /* \"contract/pokar/pokar.sol\":174:194  card[row][col]=value */\n      0x0100\n      exp\n      dup2\n      sload\n      dup2\n      0xff\n      mul\n      not\n      and\n      swap1\n      dup4\n      iszero\n      iszero\n      mul\n      or\n      swap1\n      sstore\n      pop\n        /* \"contract/pokar/pokar.sol\":111:202  function first(uint row,uint col,bool value) public {... */\n      pop\n      pop\n      pop\n      jump\t// out\n        /* \"#utility.yul\":7:82   */\n    tag_33:\n        /* \"#utility.yul\":40:46   */\n      0x00\n        /* \"#utility.yul\":73:75   */\n      0x40\n        /* \"#utility.yul\":67:76   */\n      mload\n        /* \"#utility.yul\":57:76   */\n      swap1\n      pop\n        /* \"#utility.yul\":7:82   */\n      swap1\n      jump\t// out\n        /* \"#utility.yul\":88:205   */\n    tag_34:\n        /* \"#utility.yul\":197:198   */\n      0x00\n        /* \"#utility.yul\":194:195   */\n      dup1\n        /* \"#utility.yul\":187:199   */\n      revert\n        /* \"#utility.yul\":334:411   */\n    tag_36:\n        /* \"#utility.yul\":371:378   */\n      0x00\n        /* \"#utility.yul\":400:405   */\n      dup2\n        /* \"#utility.yul\":389:405   */\n      swap1\n      pop\n        /* \"#utility.yul\":334:411   */\n      swap2\n      swap1\n      pop\n      jump\t// out\n        /* \"#utility.yul\":417:539   */\n    tag_37:\n        /* \"#utility.yul\":490:514   */\n      tag_61\n        /* \"#utility.yul\":508:513   */\n      dup2\n        /* \"#utility.yul\":490:514   */\n      tag_36\n      jump\t// in\n    tag_61:\n        /* \"#utility.yul\":483:488   */\n      dup2\n        /* \"#utility.yul\":480:515   */\n      eq\n        /* \"#utility.yul\":470:533   */\n      tag_62\n      jumpi\n        /* \"#utility.yul\":529:530   */\n      0x00\n        /* \"#utility.yul\":526:527   */\n      dup1\n        /* \"#utility.yul\":519:531   */\n      revert\n        /* \"#utility.yul\":470:533   */\n    tag_62:\n        /* \"#utility.yul\":417:539   */\n      pop\n      jump\t// out\n        /* \"#utility.yul\":545:684   */\n    tag_38:\n        /* \"#utility.yul\":591:596   */\n      0x00\n        /* \"#utility.yul\":629:635   */\n      dup2\n        /* \"#utility.yul\":616:636   */\n      calldataload\n        /* \"#utility.yul\":607:636   */\n      swap1\n      pop\n        /* \"#utility.yul\":645:678   */\n      tag_64\n        /* \"#utility.yul\":672:677   */\n      dup2\n        /* \"#utility.yul\":645:678   */\n      tag_37\n      jump\t// in\n    tag_64:\n        /* \"#utility.yul\":545:684   */\n      swap3\n      swap2\n      pop\n      pop\n      jump\t// out\n        /* \"#utility.yul\":690:1164   */\n    tag_8:\n        /* \"#utility.yul\":758:764   */\n      0x00\n        /* \"#utility.yul\":766:772   */\n      dup1\n        /* \"#utility.yul\":815:817   */\n      0x40\n        /* \"#utility.yul\":803:812   */\n      dup4\n        /* \"#utility.yul\":794:801   */\n      dup6\n        /* \"#utility.yul\":790:813   */\n      sub\n        /* \"#utility.yul\":786:818   */\n      slt\n        /* \"#utility.yul\":783:902   */\n      iszero\n      tag_66\n      jumpi\n        /* \"#utility.yul\":821:900   */\n      tag_67\n      tag_34\n      jump\t// in\n    tag_67:\n        /* \"#utility.yul\":783:902   */\n    tag_66:\n        /* \"#utility.yul\":941:942   */\n      0x00\n        /* \"#utility.yul\":966:1019   */\n      tag_68\n        /* \"#utility.yul\":1011:1018   */\n      dup6\n        /* \"#utility.yul\":1002:1008   */\n      dup3\n        /* \"#utility.yul\":991:1000   */\n      dup7\n        /* \"#utility.yul\":987:1009   */\n      add\n        /* \"#utility.yul\":966:1019   */\n      tag_38\n      jump\t// in\n    tag_68:\n        /* \"#utility.yul\":956:1019   */\n      swap3\n      pop\n        /* \"#utility.yul\":912:1029   */\n      pop\n        /* \"#utility.yul\":1068:1070   */\n      0x20\n        /* \"#utility.yul\":1094:1147   */\n      tag_69\n        /* \"#utility.yul\":1139:1146   */\n      dup6\n        /* \"#utility.yul\":1130:1136   */\n      dup3\n        /* \"#utility.yul\":1119:1128   */\n      dup7\n        /* \"#utility.yul\":1115:1137   */\n      add\n        /* \"#utility.yul\":1094:1147   */\n      tag_38\n      jump\t// in\n    tag_69:\n        /* \"#utility.yul\":1084:1147   */\n      swap2\n      pop\n        /* \"#utility.yul\":1039:1157   */\n      pop\n        /* \"#utility.yul\":690:1164   */\n      swap3\n      pop\n      swap3\n      swap1\n      pop\n      jump\t// out\n        /* \"#utility.yul\":1170:1260   */\n    tag_39:\n        /* \"#utility.yul\":1204:1211   */\n      0x00\n        /* \"#utility.yul\":1247:1252   */\n      dup2\n        /* \"#utility.yul\":1240:1253   */\n      iszero\n        /* \"#utility.yul\":1233:1254   */\n      iszero\n        /* \"#utility.yul\":1222:1254   */\n      swap1\n      pop\n        /* \"#utility.yul\":1170:1260   */\n      swap2\n      swap1\n      pop\n      jump\t// out\n        /* \"#utility.yul\":1266:1375   */\n    tag_40:\n        /* \"#utility.yul\":1347:1368   */\n      tag_72\n        /* \"#utility.yul\":1362:1367   */\n      dup2\n        /* \"#utility.yul\":1347:1368   */\n      tag_39\n      jump\t// in\n    tag_72:\n        /* \"#utility.yul\":1342:1345   */\n      dup3\n        /* \"#utility.yul\":1335:1369   */\n      mstore\n        /* \"#utility.yul\":1266:1375   */\n      pop\n      pop\n      jump\t// out\n        /* \"#utility.yul\":1381:1591   */\n    tag_11:\n        /* \"#utility.yul\":1468:1472   */\n      0x00\n        /* \"#utility.yul\":1506:1508   */\n      0x20\n        /* \"#utility.yul\":1495:1504   */\n      dup3\n        /* \"#utility.yul\":1491:1509   */\n      add\n        /* \"#utility.yul\":1483:1509   */\n      swap1\n      pop\n        /* \"#utility.yul\":1519:1584   */\n      tag_74\n        /* \"#utility.yul\":1581:1582   */\n      0x00\n        /* \"#utility.yul\":1570:1579   */\n      dup4\n        /* \"#utility.yul\":1566:1583   */\n      add\n        /* \"#utility.yul\":1557:1563   */\n      dup5\n        /* \"#utility.yul\":1519:1584   */\n      tag_40\n      jump\t// in\n    tag_74:\n        /* \"#utility.yul\":1381:1591   */\n      swap3\n      swap2\n      pop\n      pop\n      jump\t// out\n        /* \"#utility.yul\":1597:1714   */\n    tag_41:\n        /* \"#utility.yul\":1706:1707   */\n      0x00\n        /* \"#utility.yul\":1703:1704   */\n      dup1\n        /* \"#utility.yul\":1696:1708   */\n      revert\n        /* \"#utility.yul\":1720:1822   */\n    tag_42:\n        /* \"#utility.yul\":1761:1767   */\n      0x00\n        /* \"#utility.yul\":1812:1814   */\n      0x1f\n        /* \"#utility.yul\":1808:1815   */\n      not\n        /* \"#utility.yul\":1803:1805   */\n      0x1f\n        /* \"#utility.yul\":1796:1801   */\n      dup4\n        /* \"#utility.yul\":1792:1806   */\n      add\n        /* \"#utility.yul\":1788:1816   */\n      and\n        /* \"#utility.yul\":1778:1816   */\n      swap1\n      pop\n        /* \"#utility.yul\":1720:1822   */\n      swap2\n      swap1\n      pop\n      jump\t// out\n        /* \"#utility.yul\":1828:2008   */\n    tag_43:\n        /* \"#utility.yul\":1876:1953   */\n      0x4e487b7100000000000000000000000000000000000000000000000000000000\n        /* \"#utility.yul\":1873:1874   */\n      0x00\n        /* \"#utility.yul\":1866:1954   */\n      mstore\n        /* \"#utility.yul\":1973:1977   */\n      0x41\n        /* \"#utility.yul\":1970:1971   */\n      0x04\n        /* \"#utility.yul\":1963:1978   */\n      mstore\n        /* \"#utility.yul\":1997:2001   */\n      0x24\n        /* \"#utility.yul\":1994:1995   */\n      0x00\n        /* \"#utility.yul\":1987:2002   */\n      revert\n        /* \"#utility.yul\":2014:2295   */\n    tag_44:\n        /* \"#utility.yul\":2097:2124   */\n      tag_79\n        /* \"#utility.yul\":2119:2123   */\n      dup3\n        /* \"#utility.yul\":2097:2124   */\n      tag_42\n      jump\t// in\n    tag_79:\n        /* \"#utility.yul\":2089:2095   */\n      dup2\n        /* \"#utility.yul\":2085:2125   */\n      add\n        /* \"#utility.yul\":2227:2233   */\n      dup2\n        /* \"#utility.yul\":2215:2225   */\n      dup2\n        /* \"#utility.yul\":2212:2234   */\n      lt\n        /* \"#utility.yul\":2191:2209   */\n      0xffffffffffffffff\n        /* \"#utility.yul\":2179:2189   */\n      dup3\n        /* \"#utility.yul\":2176:2210   */\n      gt\n        /* \"#utility.yul\":2173:2235   */\n      or\n        /* \"#utility.yul\":2170:2258   */\n      iszero\n      tag_80\n      jumpi\n        /* \"#utility.yul\":2238:2256   */\n      tag_81\n      tag_43\n      jump\t// in\n    tag_81:\n        /* \"#utility.yul\":2170:2258   */\n    tag_80:\n        /* \"#utility.yul\":2278:2288   */\n      dup1\n        /* \"#utility.yul\":2274:2276   */\n      0x40\n        /* \"#utility.yul\":2267:2289   */\n      mstore\n        /* \"#utility.yul\":2057:2295   */\n      pop\n        /* \"#utility.yul\":2014:2295   */\n      pop\n      pop\n      jump\t// out\n        /* \"#utility.yul\":2301:2430   */\n    tag_45:\n        /* \"#utility.yul\":2335:2341   */\n      0x00\n        /* \"#utility.yul\":2362:2382   */\n      tag_83\n      tag_33\n      jump\t// in\n    tag_83:\n        /* \"#utility.yul\":2352:2382   */\n      swap1\n      pop\n        /* \"#utility.yul\":2391:2424   */\n      tag_84\n        /* \"#utility.yul\":2419:2423   */\n      dup3\n        /* \"#utility.yul\":2411:2417   */\n      dup3\n        /* \"#utility.yul\":2391:2424   */\n      tag_44\n      jump\t// in\n    tag_84:\n        /* \"#utility.yul\":2301:2430   */\n      swap2\n      swap1\n      pop\n      jump\t// out\n        /* \"#utility.yul\":2436:2706   */\n    tag_46:\n        /* \"#utility.yul\":2532:2536   */\n      0x00\n        /* \"#utility.yul\":2622:2640   */\n      0xffffffffffffffff\n        /* \"#utility.yul\":2614:2620   */\n      dup3\n        /* \"#utility.yul\":2611:2641   */\n      gt\n        /* \"#utility.yul\":2608:2664   */\n      iszero\n      tag_86\n      jumpi\n        /* \"#utility.yul\":2644:2662   */\n      tag_87\n      tag_43\n      jump\t// in\n    tag_87:\n        /* \"#utility.yul\":2608:2664   */\n    tag_86:\n        /* \"#utility.yul\":2694:2698   */\n      0x20\n        /* \"#utility.yul\":2686:2692   */\n      dup3\n        /* \"#utility.yul\":2682:2699   */\n      mul\n        /* \"#utility.yul\":2674:2699   */\n      swap1\n      pop\n        /* \"#utility.yul\":2436:2706   */\n      swap2\n      swap1\n      pop\n      jump\t// out\n        /* \"#utility.yul\":2712:2829   */\n    tag_47:\n        /* \"#utility.yul\":2821:2822   */\n      0x00\n        /* \"#utility.yul\":2818:2819   */\n      dup1\n        /* \"#utility.yul\":2811:2823   */\n      revert\n        /* \"#utility.yul\":2835:3082   */\n    tag_48:\n        /* \"#utility.yul\":2908:2912   */\n      0x00\n        /* \"#utility.yul\":2998:3016   */\n      0xffffffffffffffff\n        /* \"#utility.yul\":2990:2996   */\n      dup3\n        /* \"#utility.yul\":2987:3017   */\n      gt\n        /* \"#utility.yul\":2984:3040   */\n      iszero\n      tag_90\n      jumpi\n        /* \"#utility.yul\":3020:3038   */\n      tag_91\n      tag_43\n      jump\t// in\n    tag_91:\n        /* \"#utility.yul\":2984:3040   */\n    tag_90:\n        /* \"#utility.yul\":3070:3074   */\n      0x20\n        /* \"#utility.yul\":3062:3068   */\n      dup3\n        /* \"#utility.yul\":3058:3075   */\n      mul\n        /* \"#utility.yul\":3050:3075   */\n      swap1\n      pop\n        /* \"#utility.yul\":2835:3082   */\n      swap2\n      swap1\n      pop\n      jump\t// out\n        /* \"#utility.yul\":3088:3204   */\n    tag_49:\n        /* \"#utility.yul\":3158:3179   */\n      tag_93\n        /* \"#utility.yul\":3173:3178   */\n      dup2\n        /* \"#utility.yul\":3158:3179   */\n      tag_39\n      jump\t// in\n    tag_93:\n        /* \"#utility.yul\":3151:3156   */\n      dup2\n        /* \"#utility.yul\":3148:3180   */\n      eq\n        /* \"#utility.yul\":3138:3198   */\n      tag_94\n      jumpi\n        /* \"#utility.yul\":3194:3195   */\n      0x00\n        /* \"#utility.yul\":3191:3192   */\n      dup1\n        /* \"#utility.yul\":3184:3196   */\n      revert\n        /* \"#utility.yul\":3138:3198   */\n    tag_94:\n        /* \"#utility.yul\":3088:3204   */\n      pop\n      jump\t// out\n        /* \"#utility.yul\":3210:3343   */\n    tag_50:\n        /* \"#utility.yul\":3253:3258   */\n      0x00\n        /* \"#utility.yul\":3291:3297   */\n      dup2\n        /* \"#utility.yul\":3278:3298   */\n      calldataload\n        /* \"#utility.yul\":3269:3298   */\n      swap1\n      pop\n        /* \"#utility.yul\":3307:3337   */\n      tag_96\n        /* \"#utility.yul\":3331:3336   */\n      dup2\n        /* \"#utility.yul\":3307:3337   */\n      tag_49\n      jump\t// in\n    tag_96:\n        /* \"#utility.yul\":3210:3343   */\n      swap3\n      swap2\n      pop\n      pop\n      jump\t// out\n        /* \"#utility.yul\":3365:4001   */\n    tag_51:\n        /* \"#utility.yul\":3457:3462   */\n      0x00\n        /* \"#utility.yul\":3482:3559   */\n      tag_98\n        /* \"#utility.yul\":3498:3558   */\n      tag_99\n        /* \"#utility.yul\":3551:3557   */\n      dup5\n        /* \"#utility.yul\":3498:3558   */\n      tag_48\n      jump\t// in\n    tag_99:\n        /* \"#utility.yul\":3482:3559   */\n      tag_45\n      jump\t// in\n    tag_98:\n        /* \"#utility.yul\":3473:3559   */\n      swap1\n      pop\n        /* \"#utility.yul\":3579:3584   */\n      dup1\n        /* \"#utility.yul\":3632:3636   */\n      0x20\n        /* \"#utility.yul\":3624:3630   */\n      dup5\n        /* \"#utility.yul\":3620:3637   */\n      mul\n        /* \"#utility.yul\":3612:3618   */\n      dup4\n        /* \"#utility.yul\":3608:3638   */\n      add\n        /* \"#utility.yul\":3661:3664   */\n      dup6\n        /* \"#utility.yul\":3653:3659   */\n      dup2\n        /* \"#utility.yul\":3650:3665   */\n      gt\n        /* \"#utility.yul\":3647:3769   */\n      iszero\n      tag_100\n      jumpi\n        /* \"#utility.yul\":3680:3759   */\n      tag_101\n      tag_47\n      jump\t// in\n    tag_101:\n        /* \"#utility.yul\":3647:3769   */\n    tag_100:\n        /* \"#utility.yul\":3795:3801   */\n      dup4\n        /* \"#utility.yul\":3778:3995   */\n    tag_102:\n        /* \"#utility.yul\":3812:3818   */\n      dup2\n        /* \"#utility.yul\":3807:3810   */\n      dup2\n        /* \"#utility.yul\":3804:3819   */\n      lt\n        /* \"#utility.yul\":3778:3995   */\n      iszero\n      tag_104\n      jumpi\n        /* \"#utility.yul\":3887:3890   */\n      dup1\n        /* \"#utility.yul\":3916:3950   */\n      tag_105\n        /* \"#utility.yul\":3946:3949   */\n      dup9\n        /* \"#utility.yul\":3934:3944   */\n      dup3\n        /* \"#utility.yul\":3916:3950   */\n      tag_50\n      jump\t// in\n    tag_105:\n        /* \"#utility.yul\":3911:3914   */\n      dup5\n        /* \"#utility.yul\":3904:3951   */\n      mstore\n        /* \"#utility.yul\":3980:3984   */\n      0x20\n        /* \"#utility.yul\":3975:3978   */\n      dup5\n        /* \"#utility.yul\":3971:3985   */\n      add\n        /* \"#utility.yul\":3964:3985   */\n      swap4\n      pop\n        /* \"#utility.yul\":3854:3995   */\n      pop\n        /* \"#utility.yul\":3838:3842   */\n      0x20\n        /* \"#utility.yul\":3833:3836   */\n      dup2\n        /* \"#utility.yul\":3829:3843   */\n      add\n        /* \"#utility.yul\":3822:3843   */\n      swap1\n      pop\n        /* \"#utility.yul\":3778:3995   */\n      jump(tag_102)\n    tag_104:\n        /* \"#utility.yul\":3782:3803   */\n      pop\n        /* \"#utility.yul\":3463:4001   */\n      pop\n      pop\n        /* \"#utility.yul\":3365:4001   */\n      swap4\n      swap3\n      pop\n      pop\n      pop\n      jump\t// out\n        /* \"#utility.yul\":4023:4358   */\n    tag_52:\n        /* \"#utility.yul\":4090:4095   */\n      0x00\n        /* \"#utility.yul\":4139:4142   */\n      dup3\n        /* \"#utility.yul\":4132:4136   */\n      0x1f\n        /* \"#utility.yul\":4124:4130   */\n      dup4\n        /* \"#utility.yul\":4120:4137   */\n      add\n        /* \"#utility.yul\":4116:4143   */\n      slt\n        /* \"#utility.yul\":4106:4228   */\n      tag_107\n      jumpi\n        /* \"#utility.yul\":4147:4226   */\n      tag_108\n      tag_41\n      jump\t// in\n    tag_108:\n        /* \"#utility.yul\":4106:4228   */\n    tag_107:\n        /* \"#utility.yul\":4251:4255   */\n      0x0d\n        /* \"#utility.yul\":4273:4352   */\n      tag_109\n        /* \"#utility.yul\":4348:4351   */\n      dup5\n        /* \"#utility.yul\":4340:4346   */\n      dup3\n        /* \"#utility.yul\":4332:4338   */\n      dup6\n        /* \"#utility.yul\":4273:4352   */\n      tag_51\n      jump\t// in\n    tag_109:\n        /* \"#utility.yul\":4264:4352   */\n      swap2\n      pop\n        /* \"#utility.yul\":4096:4358   */\n      pop\n        /* \"#utility.yul\":4023:4358   */\n      swap3\n      swap2\n      pop\n      pop\n      jump\t// out\n        /* \"#utility.yul\":4383:5093   */\n    tag_53:\n        /* \"#utility.yul\":4498:4503   */\n      0x00\n        /* \"#utility.yul\":4523:4623   */\n      tag_111\n        /* \"#utility.yul\":4539:4622   */\n      tag_112\n        /* \"#utility.yul\":4615:4621   */\n      dup5\n        /* \"#utility.yul\":4539:4622   */\n      tag_46\n      jump\t// in\n    tag_112:\n        /* \"#utility.yul\":4523:4623   */\n      tag_45\n      jump\t// in\n    tag_111:\n        /* \"#utility.yul\":4514:4623   */\n      swap1\n      pop\n        /* \"#utility.yul\":4643:4648   */\n      dup1\n        /* \"#utility.yul\":4696:4702   */\n      0x01a0\n        /* \"#utility.yul\":4688:4694   */\n      dup5\n        /* \"#utility.yul\":4684:4703   */\n      mul\n        /* \"#utility.yul\":4676:4682   */\n      dup4\n        /* \"#utility.yul\":4672:4704   */\n      add\n        /* \"#utility.yul\":4727:4730   */\n      dup6\n        /* \"#utility.yul\":4719:4725   */\n      dup2\n        /* \"#utility.yul\":4716:4731   */\n      gt\n        /* \"#utility.yul\":4713:4835   */\n      iszero\n      tag_113\n      jumpi\n        /* \"#utility.yul\":4746:4825   */\n      tag_114\n      tag_47\n      jump\t// in\n    tag_114:\n        /* \"#utility.yul\":4713:4835   */\n    tag_113:\n        /* \"#utility.yul\":4861:4867   */\n      dup4\n        /* \"#utility.yul\":4844:5087   */\n    tag_115:\n        /* \"#utility.yul\":4878:4884   */\n      dup2\n        /* \"#utility.yul\":4873:4876   */\n      dup2\n        /* \"#utility.yul\":4870:4885   */\n      lt\n        /* \"#utility.yul\":4844:5087   */\n      iszero\n      tag_117\n      jumpi\n        /* \"#utility.yul\":4955:4958   */\n      dup1\n        /* \"#utility.yul\":4984:5042   */\n      tag_118\n        /* \"#utility.yul\":5038:5041   */\n      dup9\n        /* \"#utility.yul\":5026:5036   */\n      dup3\n        /* \"#utility.yul\":4984:5042   */\n      tag_52\n      jump\t// in\n    tag_118:\n        /* \"#utility.yul\":4979:4982   */\n      dup5\n        /* \"#utility.yul\":4972:5043   */\n      mstore\n        /* \"#utility.yul\":5072:5076   */\n      0x20\n        /* \"#utility.yul\":5067:5070   */\n      dup5\n        /* \"#utility.yul\":5063:5077   */\n      add\n        /* \"#utility.yul\":5056:5077   */\n      swap4\n      pop\n        /* \"#utility.yul\":4922:5087   */\n      pop\n        /* \"#utility.yul\":4904:4910   */\n      0x01a0\n        /* \"#utility.yul\":4899:4902   */\n      dup2\n        /* \"#utility.yul\":4895:4911   */\n      add\n        /* \"#utility.yul\":4888:4911   */\n      swap1\n      pop\n        /* \"#utility.yul\":4844:5087   */\n      jump(tag_115)\n    tag_117:\n        /* \"#utility.yul\":4848:4869   */\n      pop\n        /* \"#utility.yul\":4504:5093   */\n      pop\n      pop\n        /* \"#utility.yul\":4383:5093   */\n      swap4\n      swap3\n      pop\n      pop\n      pop\n      jump\t// out\n        /* \"#utility.yul\":5118:5499   */\n    tag_54:\n        /* \"#utility.yul\":5208:5213   */\n      0x00\n        /* \"#utility.yul\":5257:5260   */\n      dup3\n        /* \"#utility.yul\":5250:5254   */\n      0x1f\n        /* \"#utility.yul\":5242:5248   */\n      dup4\n        /* \"#utility.yul\":5238:5255   */\n      add\n        /* \"#utility.yul\":5234:5261   */\n      slt\n        /* \"#utility.yul\":5224:5346   */\n      tag_120\n      jumpi\n        /* \"#utility.yul\":5265:5344   */\n      tag_121\n      tag_41\n      jump\t// in\n    tag_121:\n        /* \"#utility.yul\":5224:5346   */\n    tag_120:\n        /* \"#utility.yul\":5369:5373   */\n      0x04\n        /* \"#utility.yul\":5391:5493   */\n      tag_122\n        /* \"#utility.yul\":5489:5492   */\n      dup5\n        /* \"#utility.yul\":5481:5487   */\n      dup3\n        /* \"#utility.yul\":5473:5479   */\n      dup6\n        /* \"#utility.yul\":5391:5493   */\n      tag_53\n      jump\t// in\n    tag_122:\n        /* \"#utility.yul\":5382:5493   */\n      swap2\n      pop\n        /* \"#utility.yul\":5214:5499   */\n      pop\n        /* \"#utility.yul\":5118:5499   */\n      swap3\n      swap2\n      pop\n      pop\n      jump\t// out\n        /* \"#utility.yul\":5505:5924   */\n    tag_14:\n        /* \"#utility.yul\":5608:5614   */\n      0x00\n        /* \"#utility.yul\":5657:5661   */\n      0x0680\n        /* \"#utility.yul\":5645:5654   */\n      dup3\n        /* \"#utility.yul\":5636:5643   */\n      dup5\n        /* \"#utility.yul\":5632:5655   */\n      sub\n        /* \"#utility.yul\":5628:5662   */\n      slt\n        /* \"#utility.yul\":5625:5746   */\n      iszero\n      tag_124\n      jumpi\n        /* \"#utility.yul\":5665:5744   */\n      tag_125\n      tag_34\n      jump\t// in\n    tag_125:\n        /* \"#utility.yul\":5625:5746   */\n    tag_124:\n        /* \"#utility.yul\":5785:5786   */\n      0x00\n        /* \"#utility.yul\":5810:5907   */\n      tag_126\n        /* \"#utility.yul\":5899:5906   */\n      dup5\n        /* \"#utility.yul\":5890:5896   */\n      dup3\n        /* \"#utility.yul\":5879:5888   */\n      dup6\n        /* \"#utility.yul\":5875:5897   */\n      add\n        /* \"#utility.yul\":5810:5907   */\n      tag_54\n      jump\t// in\n    tag_126:\n        /* \"#utility.yul\":5800:5907   */\n      swap2\n      pop\n        /* \"#utility.yul\":5756:5917   */\n      pop\n        /* \"#utility.yul\":5505:5924   */\n      swap3\n      swap2\n      pop\n      pop\n      jump\t// out\n        /* \"#utility.yul\":5930:6543   */\n    tag_18:\n        /* \"#utility.yul\":6004:6010   */\n      0x00\n        /* \"#utility.yul\":6012:6018   */\n      dup1\n        /* \"#utility.yul\":6020:6026   */\n      0x00\n        /* \"#utility.yul\":6069:6071   */\n      0x60\n        /* \"#utility.yul\":6057:6066   */\n      dup5\n        /* \"#utility.yul\":6048:6055   */\n      dup7\n        /* \"#utility.yul\":6044:6067   */\n      sub\n        /* \"#utility.yul\":6040:6072   */\n      slt\n        /* \"#utility.yul\":6037:6156   */\n      iszero\n      tag_128\n      jumpi\n        /* \"#utility.yul\":6075:6154   */\n      tag_129\n      tag_34\n      jump\t// in\n    tag_129:\n        /* \"#utility.yul\":6037:6156   */\n    tag_128:\n        /* \"#utility.yul\":6195:6196   */\n      0x00\n        /* \"#utility.yul\":6220:6273   */\n      tag_130\n        /* \"#utility.yul\":6265:6272   */\n      dup7\n        /* \"#utility.yul\":6256:6262   */\n      dup3\n        /* \"#utility.yul\":6245:6254   */\n      dup8\n        /* \"#utility.yul\":6241:6263   */\n      add\n        /* \"#utility.yul\":6220:6273   */\n      tag_38\n      jump\t// in\n    tag_130:\n        /* \"#utility.yul\":6210:6273   */\n      swap4\n      pop\n        /* \"#utility.yul\":6166:6283   */\n      pop\n        /* \"#utility.yul\":6322:6324   */\n      0x20\n        /* \"#utility.yul\":6348:6401   */\n      tag_131\n        /* \"#utility.yul\":6393:6400   */\n      dup7\n        /* \"#utility.yul\":6384:6390   */\n      dup3\n        /* \"#utility.yul\":6373:6382   */\n      dup8\n        /* \"#utility.yul\":6369:6391   */\n      add\n        /* \"#utility.yul\":6348:6401   */\n      tag_38\n      jump\t// in\n    tag_131:\n        /* \"#utility.yul\":6338:6401   */\n      swap3\n      pop\n        /* \"#utility.yul\":6293:6411   */\n      pop\n        /* \"#utility.yul\":6450:6452   */\n      0x40\n        /* \"#utility.yul\":6476:6526   */\n      tag_132\n        /* \"#utility.yul\":6518:6525   */\n      dup7\n        /* \"#utility.yul\":6509:6515   */\n      dup3\n        /* \"#utility.yul\":6498:6507   */\n      dup8\n        /* \"#utility.yul\":6494:6516   */\n      add\n        /* \"#utility.yul\":6476:6526   */\n      tag_50\n      jump\t// in\n    tag_132:\n        /* \"#utility.yul\":6466:6526   */\n      swap2\n      pop\n        /* \"#utility.yul\":6421:6536   */\n      pop\n        /* \"#utility.yul\":5930:6543   */\n      swap3\n      pop\n      swap3\n      pop\n      swap3\n      jump\t// out\n        /* \"#utility.yul\":6549:6729   */\n    tag_28:\n        /* \"#utility.yul\":6597:6674   */\n      0x4e487b7100000000000000000000000000000000000000000000000000000000\n        /* \"#utility.yul\":6594:6595   */\n      0x00\n        /* \"#utility.yul\":6587:6675   */\n      mstore\n        /* \"#utility.yul\":6694:6698   */\n      0x32\n        /* \"#utility.yul\":6691:6692   */\n      0x04\n        /* \"#utility.yul\":6684:6699   */\n      mstore\n        /* \"#utility.yul\":6718:6722   */\n      0x24\n        /* \"#utility.yul\":6715:6716   */\n      0x00\n        /* \"#utility.yul\":6708:6723   */\n      revert\n\n    auxdata: 0xa2646970667358221220d1a54200a1dd98f688608afa96c4780807630d6d4b5ca4db5ce7256560a7091864736f6c634300081a0033\n}\n",
				"bytecode": {
					"linkReferences": {},
					"object": "6080604052348015600e575f80fd5b506104da8061001c5f395ff3fe608060405234801561000f575f80fd5b506004361061003f575f3560e01c80638cdac16d14610043578063e279890a14610073578063ee4953e11461008f575b5f80fd5b61005d60048036038101906100589190610172565b6100ab565b60405161006a91906101ca565b60405180910390f35b61008d600480360381019061008891906103fb565b6100e4565b005b6100a960048036038101906100a49190610427565b6100e7565b005b5f82600481106100b9575f80fd5b0181600d81106100c7575f80fd5b60209182820401919006915091509054906101000a900460ff1681565b50565b805f84600481106100fb576100fa610477565b5b0183600d811061010e5761010d610477565b5b602091828204019190066101000a81548160ff021916908315150217905550505050565b5f604051905090565b5f80fd5b5f819050919050565b6101518161013f565b811461015b575f80fd5b50565b5f8135905061016c81610148565b92915050565b5f80604083850312156101885761018761013b565b5b5f6101958582860161015e565b92505060206101a68582860161015e565b9150509250929050565b5f8115159050919050565b6101c4816101b0565b82525050565b5f6020820190506101dd5f8301846101bb565b92915050565b5f80fd5b5f601f19601f8301169050919050565b7f4e487b71000000000000000000000000000000000000000000000000000000005f52604160045260245ffd5b61022d826101e7565b810181811067ffffffffffffffff8211171561024c5761024b6101f7565b5b80604052505050565b5f61025e610132565b905061026a8282610224565b919050565b5f67ffffffffffffffff821115610289576102886101f7565b5b602082029050919050565b5f80fd5b5f67ffffffffffffffff8211156102b2576102b16101f7565b5b602082029050919050565b6102c6816101b0565b81146102d0575f80fd5b50565b5f813590506102e1816102bd565b92915050565b5f6102f96102f484610298565b610255565b9050806020840283018581111561031357610312610294565b5b835b8181101561033c578061032888826102d3565b845260208401935050602081019050610315565b5050509392505050565b5f82601f83011261035a576103596101e3565b5b600d6103678482856102e7565b91505092915050565b5f61038261037d8461026f565b610255565b9050806101a0840283018581111561039d5761039c610294565b5b835b818110156103c757806103b28882610346565b8452602084019350506101a08101905061039f565b5050509392505050565b5f82601f8301126103e5576103e46101e3565b5b60046103f2848285610370565b91505092915050565b5f61068082840312156104115761041061013b565b5b5f61041e848285016103d1565b91505092915050565b5f805f6060848603121561043e5761043d61013b565b5b5f61044b8682870161015e565b935050602061045c8682870161015e565b925050604061046d868287016102d3565b9150509250925092565b7f4e487b71000000000000000000000000000000000000000000000000000000005f52603260045260245ffdfea2646970667358221220d1a54200a1dd98f688608afa96c4780807630d6d4b5ca4db5ce7256560a7091864736f6c634300081a0033",
					"opcodes": "PUSH1 0x80 PUSH1 0x40 MSTORE CALLVALUE DUP1 ISZERO PUSH1 0xE JUMPI PUSH0 DUP1 REVERT JUMPDEST POP PUSH2 0x4DA DUP1 PUSH2 0x1C PUSH0 CODECOPY PUSH0 RETURN INVALID PUSH1 0x80 PUSH1 0x40 MSTORE CALLVALUE DUP1 ISZERO PUSH2 0xF JUMPI PUSH0 DUP1 REVERT JUMPDEST POP PUSH1 0x4 CALLDATASIZE LT PUSH2 0x3F JUMPI PUSH0 CALLDATALOAD PUSH1 0xE0 SHR DUP1 PUSH4 0x8CDAC16D EQ PUSH2 0x43 JUMPI DUP1 PUSH4 0xE279890A EQ PUSH2 0x73 JUMPI DUP1 PUSH4 0xEE4953E1 EQ PUSH2 0x8F JUMPI JUMPDEST PUSH0 DUP1 REVERT JUMPDEST PUSH2 0x5D PUSH1 0x4 DUP1 CALLDATASIZE SUB DUP2 ADD SWAP1 PUSH2 0x58 SWAP2 SWAP1 PUSH2 0x172 JUMP JUMPDEST PUSH2 0xAB JUMP JUMPDEST PUSH1 0x40 MLOAD PUSH2 0x6A SWAP2 SWAP1 PUSH2 0x1CA JUMP JUMPDEST PUSH1 0x40 MLOAD DUP1 SWAP2 SUB SWAP1 RETURN JUMPDEST PUSH2 0x8D PUSH1 0x4 DUP1 CALLDATASIZE SUB DUP2 ADD SWAP1 PUSH2 0x88 SWAP2 SWAP1 PUSH2 0x3FB JUMP JUMPDEST PUSH2 0xE4 JUMP JUMPDEST STOP JUMPDEST PUSH2 0xA9 PUSH1 0x4 DUP1 CALLDATASIZE SUB DUP2 ADD SWAP1 PUSH2 0xA4 SWAP2 SWAP1 PUSH2 0x427 JUMP JUMPDEST PUSH2 0xE7 JUMP JUMPDEST STOP JUMPDEST PUSH0 DUP3 PUSH1 0x4 DUP2 LT PUSH2 0xB9 JUMPI PUSH0 DUP1 REVERT JUMPDEST ADD DUP2 PUSH1 0xD DUP2 LT PUSH2 0xC7 JUMPI PUSH0 DUP1 REVERT JUMPDEST PUSH1 0x20 SWAP2 DUP3 DUP3 DIV ADD SWAP2 SWAP1 MOD SWAP2 POP SWAP2 POP SWAP1 SLOAD SWAP1 PUSH2 0x100 EXP SWAP1 DIV PUSH1 0xFF AND DUP2 JUMP JUMPDEST POP JUMP JUMPDEST DUP1 PUSH0 DUP5 PUSH1 0x4 DUP2 LT PUSH2 0xFB JUMPI PUSH2 0xFA PUSH2 0x477 JUMP JUMPDEST JUMPDEST ADD DUP4 PUSH1 0xD DUP2 LT PUSH2 0x10E JUMPI PUSH2 0x10D PUSH2 0x477 JUMP JUMPDEST JUMPDEST PUSH1 0x20 SWAP2 DUP3 DUP3 DIV ADD SWAP2 SWAP1 MOD PUSH2 0x100 EXP DUP2 SLOAD DUP2 PUSH1 0xFF MUL NOT AND SWAP1 DUP4 ISZERO ISZERO MUL OR SWAP1 SSTORE POP POP POP POP JUMP JUMPDEST PUSH0 PUSH1 0x40 MLOAD SWAP1 POP SWAP1 JUMP JUMPDEST PUSH0 DUP1 REVERT JUMPDEST PUSH0 DUP2 SWAP1 POP SWAP2 SWAP1 POP JUMP JUMPDEST PUSH2 0x151 DUP2 PUSH2 0x13F JUMP JUMPDEST DUP2 EQ PUSH2 0x15B JUMPI PUSH0 DUP1 REVERT JUMPDEST POP JUMP JUMPDEST PUSH0 DUP2 CALLDATALOAD SWAP1 POP PUSH2 0x16C DUP2 PUSH2 0x148 JUMP JUMPDEST SWAP3 SWAP2 POP POP JUMP JUMPDEST PUSH0 DUP1 PUSH1 0x40 DUP4 DUP6 SUB SLT ISZERO PUSH2 0x188 JUMPI PUSH2 0x187 PUSH2 0x13B JUMP JUMPDEST JUMPDEST PUSH0 PUSH2 0x195 DUP6 DUP3 DUP7 ADD PUSH2 0x15E JUMP JUMPDEST SWAP3 POP POP PUSH1 0x20 PUSH2 0x1A6 DUP6 DUP3 DUP7 ADD PUSH2 0x15E JUMP JUMPDEST SWAP2 POP POP SWAP3 POP SWAP3 SWAP1 POP JUMP JUMPDEST PUSH0 DUP2 ISZERO ISZERO SWAP1 POP SWAP2 SWAP1 POP JUMP JUMPDEST PUSH2 0x1C4 DUP2 PUSH2 0x1B0 JUMP JUMPDEST DUP3 MSTORE POP POP JUMP JUMPDEST PUSH0 PUSH1 0x20 DUP3 ADD SWAP1 POP PUSH2 0x1DD PUSH0 DUP4 ADD DUP5 PUSH2 0x1BB JUMP JUMPDEST SWAP3 SWAP2 POP POP JUMP JUMPDEST PUSH0 DUP1 REVERT JUMPDEST PUSH0 PUSH1 0x1F NOT PUSH1 0x1F DUP4 ADD AND SWAP1 POP SWAP2 SWAP1 POP JUMP JUMPDEST PUSH32 0x4E487B7100000000000000000000000000000000000000000000000000000000 PUSH0 MSTORE PUSH1 0x41 PUSH1 0x4 MSTORE PUSH1 0x24 PUSH0 REVERT JUMPDEST PUSH2 0x22D DUP3 PUSH2 0x1E7 JUMP JUMPDEST DUP2 ADD DUP2 DUP2 LT PUSH8 0xFFFFFFFFFFFFFFFF DUP3 GT OR ISZERO PUSH2 0x24C JUMPI PUSH2 0x24B PUSH2 0x1F7 JUMP JUMPDEST JUMPDEST DUP1 PUSH1 0x40 MSTORE POP POP POP JUMP JUMPDEST PUSH0 PUSH2 0x25E PUSH2 0x132 JUMP JUMPDEST SWAP1 POP PUSH2 0x26A DUP3 DUP3 PUSH2 0x224 JUMP JUMPDEST SWAP2 SWAP1 POP JUMP JUMPDEST PUSH0 PUSH8 0xFFFFFFFFFFFFFFFF DUP3 GT ISZERO PUSH2 0x289 JUMPI PUSH2 0x288 PUSH2 0x1F7 JUMP JUMPDEST JUMPDEST PUSH1 0x20 DUP3 MUL SWAP1 POP SWAP2 SWAP1 POP JUMP JUMPDEST PUSH0 DUP1 REVERT JUMPDEST PUSH0 PUSH8 0xFFFFFFFFFFFFFFFF DUP3 GT ISZERO PUSH2 0x2B2 JUMPI PUSH2 0x2B1 PUSH2 0x1F7 JUMP JUMPDEST JUMPDEST PUSH1 0x20 DUP3 MUL SWAP1 POP SWAP2 SWAP1 POP JUMP JUMPDEST PUSH2 0x2C6 DUP2 PUSH2 0x1B0 JUMP JUMPDEST DUP2 EQ PUSH2 0x2D0 JUMPI PUSH0 DUP1 REVERT JUMPDEST POP JUMP JUMPDEST PUSH0 DUP2 CALLDATALOAD SWAP1 POP PUSH2 0x2E1 DUP2 PUSH2 0x2BD JUMP JUMPDEST SWAP3 SWAP2 POP POP JUMP JUMPDEST PUSH0 PUSH2 0x2F9 PUSH2 0x2F4 DUP5 PUSH2 0x298 JUMP JUMPDEST PUSH2 0x255 JUMP JUMPDEST SWAP1 POP DUP1 PUSH1 0x20 DUP5 MUL DUP4 ADD DUP6 DUP2 GT ISZERO PUSH2 0x313 JUMPI PUSH2 0x312 PUSH2 0x294 JUMP JUMPDEST JUMPDEST DUP4 JUMPDEST DUP2 DUP2 LT ISZERO PUSH2 0x33C JUMPI DUP1 PUSH2 0x328 DUP9 DUP3 PUSH2 0x2D3 JUMP JUMPDEST DUP5 MSTORE PUSH1 0x20 DUP5 ADD SWAP4 POP POP PUSH1 0x20 DUP2 ADD SWAP1 POP PUSH2 0x315 JUMP JUMPDEST POP POP POP SWAP4 SWAP3 POP POP POP JUMP JUMPDEST PUSH0 DUP3 PUSH1 0x1F DUP4 ADD SLT PUSH2 0x35A JUMPI PUSH2 0x359 PUSH2 0x1E3 JUMP JUMPDEST JUMPDEST PUSH1 0xD PUSH2 0x367 DUP5 DUP3 DUP6 PUSH2 0x2E7 JUMP JUMPDEST SWAP2 POP POP SWAP3 SWAP2 POP POP JUMP JUMPDEST PUSH0 PUSH2 0x382 PUSH2 0x37D DUP5 PUSH2 0x26F JUMP JUMPDEST PUSH2 0x255 JUMP JUMPDEST SWAP1 POP DUP1 PUSH2 0x1A0 DUP5 MUL DUP4 ADD DUP6 DUP2 GT ISZERO PUSH2 0x39D JUMPI PUSH2 0x39C PUSH2 0x294 JUMP JUMPDEST JUMPDEST DUP4 JUMPDEST DUP2 DUP2 LT ISZERO PUSH2 0x3C7 JUMPI DUP1 PUSH2 0x3B2 DUP9 DUP3 PUSH2 0x346 JUMP JUMPDEST DUP5 MSTORE PUSH1 0x20 DUP5 ADD SWAP4 POP POP PUSH2 0x1A0 DUP2 ADD SWAP1 POP PUSH2 0x39F JUMP JUMPDEST POP POP POP SWAP4 SWAP3 POP POP POP JUMP JUMPDEST PUSH0 DUP3 PUSH1 0x1F DUP4 ADD SLT PUSH2 0x3E5 JUMPI PUSH2 0x3E4 PUSH2 0x1E3 JUMP JUMPDEST JUMPDEST PUSH1 0x4 PUSH2 0x3F2 DUP5 DUP3 DUP6 PUSH2 0x370 JUMP JUMPDEST SWAP2 POP POP SWAP3 SWAP2 POP POP JUMP JUMPDEST PUSH0 PUSH2 0x680 DUP3 DUP5 SUB SLT ISZERO PUSH2 0x411 JUMPI PUSH2 0x410 PUSH2 0x13B JUMP JUMPDEST JUMPDEST PUSH0 PUSH2 0x41E DUP5 DUP3 DUP6 ADD PUSH2 0x3D1 JUMP JUMPDEST SWAP2 POP POP SWAP3 SWAP2 POP POP JUMP JUMPDEST PUSH0 DUP1 PUSH0 PUSH1 0x60 DUP5 DUP7 SUB SLT ISZERO PUSH2 0x43E JUMPI PUSH2 0x43D PUSH2 0x13B JUMP JUMPDEST JUMPDEST PUSH0 PUSH2 0x44B DUP7 DUP3 DUP8 ADD PUSH2 0x15E JUMP JUMPDEST SWAP4 POP POP PUSH1 0x20 PUSH2 0x45C DUP7 DUP3 DUP8 ADD PUSH2 0x15E JUMP JUMPDEST SWAP3 POP POP PUSH1 0x40 PUSH2 0x46D DUP7 DUP3 DUP8 ADD PUSH2 0x2D3 JUMP JUMPDEST SWAP2 POP POP SWAP3 POP SWAP3 POP SWAP3 JUMP JUMPDEST PUSH32 0x4E487B7100000000000000000000000000000000000000000000000000000000 PUSH0 MSTORE PUSH1 0x32 PUSH1 0x4 MSTORE PUSH1 0x24 PUSH0 REVERT INVALID LOG2 PUSH5 0x6970667358 0x22 SLT KECCAK256 0xD1 0xA5 TIMESTAMP STOP LOG1 0xDD SWAP9 0xF6 DUP9 PUSH1 0x8A STATICCALL SWAP7 0xC4 PUSH25 0x807630D6D4B5CA4DB5CE7256560A7091864736F6C63430008 BYTE STOP CALLER "
				},
				"gasEstimates": {
					"creation": {
						"codeDepositCost": "248400",
						"executionCost": "285",
						"totalCost": "248685"
					},
					"external": {
						"card(uint256,uint256)": "infinite",
						"first(uint256,uint256,bool)": "infinite",
						"second(bool[13][4])": "infinite"
					}
				},
				"methodIdentifiers": {
					"card(uint256,uint256)": "8cdac16d",
					"first(uint256,uint256,bool)": "ee4953e1",
					"second(bool[13][4])": "e279890a"
				}
			},
			"storageLayout": {
				"storage": [
					{
						"astId": 7,
						"contract": "contract/pokar/pokar.sol:pokar",
						"label": "card",
						"offset": 0,
						"slot": "0",
						"type": "t_array(t_array(t_bool)13_storage)4_storage"
					}
				],
				"types": {
					"t_array(t_array(t_bool)13_storage)4_storage": {
						"base": "t_array(t_bool)13_storage",
						"encoding": "inplace",
						"label": "bool[13][4]",
						"numberOfBytes": "128"
					},
					"t_array(t_bool)13_storage": {
						"base": "t_bool",
						"encoding": "inplace",
						"label": "bool[13]",
						"numberOfBytes": "32"
					},
					"t_bool": {
						"encoding": "inplace",
						"label": "bool",
						"numberOfBytes": "1"
					}
				}
			},
			"userdoc": {
				"kind": "user",
				"methods": {},
				"version": 1
			}
		}
	}
}