{
	"data": {
		"bytecode": {
			"linkReferences": {},
			"object": "6080604052348015600e575f80fd5b506104d98061001c5f395ff3fe608060405234801561000f575f80fd5b5060043610610034575f3560e01c8063801464b7146100385780638cdac16d14610059575b5f80fd5b610040610089565b604051610050949392919061026d565b60405180910390f35b610073600480360381019061006e91906102de565b610200565b6040516100809190610336565b60405180910390f35b5f805f805f620f4240426040516020016100a3919061036f565b604051602081830303815290604052805190602001205f1c6100c591906103b6565b90505f6064826100d591906103b6565b90506064826100e491906103e6565b915060015f6004836100f69190610416565b61ffff166004811061010b5761010a610446565b5b01600d8461011991906103b6565b600d811061012a57610129610446565b5b602091828204019190066101000a81548160ff0219169083151502179055505f6004826101579190610416565b90505f600d8461016791906103b6565b9050600a836101769190610473565b925060648461018591906103e6565b935060015f6004856101979190610416565b61ffff16600481106101ac576101ab610446565b5b01600d866101ba91906103b6565b600d81106101cb576101ca610446565b5b602091828204019190066101000a81548160ff0219169083151502179055508181848697509750975097505050505090919293565b5f826004811061020e575f80fd5b0181600d811061021c575f80fd5b60209182820401919006915091509054906101000a900460ff1681565b5f61ffff82169050919050565b61024f81610239565b82525050565b5f819050919050565b61026781610255565b82525050565b5f6080820190506102805f830187610246565b61028d602083018661025e565b61029a6040830185610246565b6102a7606083018461025e565b95945050505050565b5f80fd5b6102bd81610255565b81146102c7575f80fd5b50565b5f813590506102d8816102b4565b92915050565b5f80604083850312156102f4576102f36102b0565b5b5f610301858286016102ca565b9250506020610312858286016102ca565b9150509250929050565b5f8115159050919050565b6103308161031c565b82525050565b5f6020820190506103495f830184610327565b92915050565b5f819050919050565b61036961036482610255565b61034f565b82525050565b5f61037a8284610358565b60208201915081905092915050565b7f4e487b71000000000000000000000000000000000000000000000000000000005f52601260045260245ffd5b5f6103c082610255565b91506103cb83610255565b9250826103db576103da610389565b5b828206905092915050565b5f6103f082610255565b91506103fb83610255565b92508261040b5761040a610389565b5b828204905092915050565b5f61042082610239565b915061042b83610239565b92508261043b5761043a610389565b5b828206905092915050565b7f4e487b71000000000000000000000000000000000000000000000000000000005f52603260045260245ffd5b5f61047d82610239565b915061048883610239565b92508261049857610497610389565b5b82820490509291505056fea26469706673582212200b39ddc761d30d2e42741e956e1b357a4eb32e712c5a321b25e54a90cb9b157164736f6c634300081a0033",
			"opcodes": "PUSH1 0x80 PUSH1 0x40 MSTORE CALLVALUE DUP1 ISZERO PUSH1 0xE JUMPI PUSH0 DUP1 REVERT JUMPDEST POP PUSH2 0x4D9 DUP1 PUSH2 0x1C PUSH0 CODECOPY PUSH0 RETURN INVALID PUSH1 0x80 PUSH1 0x40 MSTORE CALLVALUE DUP1 ISZERO PUSH2 0xF JUMPI PUSH0 DUP1 REVERT JUMPDEST POP PUSH1 0x4 CALLDATASIZE LT PUSH2 0x34 JUMPI PUSH0 CALLDATALOAD PUSH1 0xE0 SHR DUP1 PUSH4 0x801464B7 EQ PUSH2 0x38 JUMPI DUP1 PUSH4 0x8CDAC16D EQ PUSH2 0x59 JUMPI JUMPDEST PUSH0 DUP1 REVERT JUMPDEST PUSH2 0x40 PUSH2 0x89 JUMP JUMPDEST PUSH1 0x40 MLOAD PUSH2 0x50 SWAP5 SWAP4 SWAP3 SWAP2 SWAP1 PUSH2 0x26D JUMP JUMPDEST PUSH1 0x40 MLOAD DUP1 SWAP2 SUB SWAP1 RETURN JUMPDEST PUSH2 0x73 PUSH1 0x4 DUP1 CALLDATASIZE SUB DUP2 ADD SWAP1 PUSH2 0x6E SWAP2 SWAP1 PUSH2 0x2DE JUMP JUMPDEST PUSH2 0x200 JUMP JUMPDEST PUSH1 0x40 MLOAD PUSH2 0x80 SWAP2 SWAP1 PUSH2 0x336 JUMP JUMPDEST PUSH1 0x40 MLOAD DUP1 SWAP2 SUB SWAP1 RETURN JUMPDEST PUSH0 DUP1 PUSH0 DUP1 PUSH0 PUSH3 0xF4240 TIMESTAMP PUSH1 0x40 MLOAD PUSH1 0x20 ADD PUSH2 0xA3 SWAP2 SWAP1 PUSH2 0x36F JUMP JUMPDEST PUSH1 0x40 MLOAD PUSH1 0x20 DUP2 DUP4 SUB SUB DUP2 MSTORE SWAP1 PUSH1 0x40 MSTORE DUP1 MLOAD SWAP1 PUSH1 0x20 ADD KECCAK256 PUSH0 SHR PUSH2 0xC5 SWAP2 SWAP1 PUSH2 0x3B6 JUMP JUMPDEST SWAP1 POP PUSH0 PUSH1 0x64 DUP3 PUSH2 0xD5 SWAP2 SWAP1 PUSH2 0x3B6 JUMP JUMPDEST SWAP1 POP PUSH1 0x64 DUP3 PUSH2 0xE4 SWAP2 SWAP1 PUSH2 0x3E6 JUMP JUMPDEST SWAP2 POP PUSH1 0x1 PUSH0 PUSH1 0x4 DUP4 PUSH2 0xF6 SWAP2 SWAP1 PUSH2 0x416 JUMP JUMPDEST PUSH2 0xFFFF AND PUSH1 0x4 DUP2 LT PUSH2 0x10B JUMPI PUSH2 0x10A PUSH2 0x446 JUMP JUMPDEST JUMPDEST ADD PUSH1 0xD DUP5 PUSH2 0x119 SWAP2 SWAP1 PUSH2 0x3B6 JUMP JUMPDEST PUSH1 0xD DUP2 LT PUSH2 0x12A JUMPI PUSH2 0x129 PUSH2 0x446 JUMP JUMPDEST JUMPDEST PUSH1 0x20 SWAP2 DUP3 DUP3 DIV ADD SWAP2 SWAP1 MOD PUSH2 0x100 EXP DUP2 SLOAD DUP2 PUSH1 0xFF MUL NOT AND SWAP1 DUP4 ISZERO ISZERO MUL OR SWAP1 SSTORE POP PUSH0 PUSH1 0x4 DUP3 PUSH2 0x157 SWAP2 SWAP1 PUSH2 0x416 JUMP JUMPDEST SWAP1 POP PUSH0 PUSH1 0xD DUP5 PUSH2 0x167 SWAP2 SWAP1 PUSH2 0x3B6 JUMP JUMPDEST SWAP1 POP PUSH1 0xA DUP4 PUSH2 0x176 SWAP2 SWAP1 PUSH2 0x473 JUMP JUMPDEST SWAP3 POP PUSH1 0x64 DUP5 PUSH2 0x185 SWAP2 SWAP1 PUSH2 0x3E6 JUMP JUMPDEST SWAP4 POP PUSH1 0x1 PUSH0 PUSH1 0x4 DUP6 PUSH2 0x197 SWAP2 SWAP1 PUSH2 0x416 JUMP JUMPDEST PUSH2 0xFFFF AND PUSH1 0x4 DUP2 LT PUSH2 0x1AC JUMPI PUSH2 0x1AB PUSH2 0x446 JUMP JUMPDEST JUMPDEST ADD PUSH1 0xD DUP7 PUSH2 0x1BA SWAP2 SWAP1 PUSH2 0x3B6 JUMP JUMPDEST PUSH1 0xD DUP2 LT PUSH2 0x1CB JUMPI PUSH2 0x1CA PUSH2 0x446 JUMP JUMPDEST JUMPDEST PUSH1 0x20 SWAP2 DUP3 DUP3 DIV ADD SWAP2 SWAP1 MOD PUSH2 0x100 EXP DUP2 SLOAD DUP2 PUSH1 0xFF MUL NOT AND SWAP1 DUP4 ISZERO ISZERO MUL OR SWAP1 SSTORE POP DUP2 DUP2 DUP5 DUP7 SWAP8 POP SWAP8 POP SWAP8 POP SWAP8 POP POP POP POP POP SWAP1 SWAP2 SWAP3 SWAP4 JUMP JUMPDEST PUSH0 DUP3 PUSH1 0x4 DUP2 LT PUSH2 0x20E JUMPI PUSH0 DUP1 REVERT JUMPDEST ADD DUP2 PUSH1 0xD DUP2 LT PUSH2 0x21C JUMPI PUSH0 DUP1 REVERT JUMPDEST PUSH1 0x20 SWAP2 DUP3 DUP3 DIV ADD SWAP2 SWAP1 MOD SWAP2 POP SWAP2 POP SWAP1 SLOAD SWAP1 PUSH2 0x100 EXP SWAP1 DIV PUSH1 0xFF AND DUP2 JUMP JUMPDEST PUSH0 PUSH2 0xFFFF DUP3 AND SWAP1 POP SWAP2 SWAP1 POP JUMP JUMPDEST PUSH2 0x24F DUP2 PUSH2 0x239 JUMP JUMPDEST DUP3 MSTORE POP POP JUMP JUMPDEST PUSH0 DUP2 SWAP1 POP SWAP2 SWAP1 POP JUMP JUMPDEST PUSH2 0x267 DUP2 PUSH2 0x255 JUMP JUMPDEST DUP3 MSTORE POP POP JUMP JUMPDEST PUSH0 PUSH1 0x80 DUP3 ADD SWAP1 POP PUSH2 0x280 PUSH0 DUP4 ADD DUP8 PUSH2 0x246 JUMP JUMPDEST PUSH2 0x28D PUSH1 0x20 DUP4 ADD DUP7 PUSH2 0x25E JUMP JUMPDEST PUSH2 0x29A PUSH1 0x40 DUP4 ADD DUP6 PUSH2 0x246 JUMP JUMPDEST PUSH2 0x2A7 PUSH1 0x60 DUP4 ADD DUP5 PUSH2 0x25E JUMP JUMPDEST SWAP6 SWAP5 POP POP POP POP POP JUMP JUMPDEST PUSH0 DUP1 REVERT JUMPDEST PUSH2 0x2BD DUP2 PUSH2 0x255 JUMP JUMPDEST DUP2 EQ PUSH2 0x2C7 JUMPI PUSH0 DUP1 REVERT JUMPDEST POP JUMP JUMPDEST PUSH0 DUP2 CALLDATALOAD SWAP1 POP PUSH2 0x2D8 DUP2 PUSH2 0x2B4 JUMP JUMPDEST SWAP3 SWAP2 POP POP JUMP JUMPDEST PUSH0 DUP1 PUSH1 0x40 DUP4 DUP6 SUB SLT ISZERO PUSH2 0x2F4 JUMPI PUSH2 0x2F3 PUSH2 0x2B0 JUMP JUMPDEST JUMPDEST PUSH0 PUSH2 0x301 DUP6 DUP3 DUP7 ADD PUSH2 0x2CA JUMP JUMPDEST SWAP3 POP POP PUSH1 0x20 PUSH2 0x312 DUP6 DUP3 DUP7 ADD PUSH2 0x2CA JUMP JUMPDEST SWAP2 POP POP SWAP3 POP SWAP3 SWAP1 POP JUMP JUMPDEST PUSH0 DUP2 ISZERO ISZERO SWAP1 POP SWAP2 SWAP1 POP JUMP JUMPDEST PUSH2 0x330 DUP2 PUSH2 0x31C JUMP JUMPDEST DUP3 MSTORE POP POP JUMP JUMPDEST PUSH0 PUSH1 0x20 DUP3 ADD SWAP1 POP PUSH2 0x349 PUSH0 DUP4 ADD DUP5 PUSH2 0x327 JUMP JUMPDEST SWAP3 SWAP2 POP POP JUMP JUMPDEST PUSH0 DUP2 SWAP1 POP SWAP2 SWAP1 POP JUMP JUMPDEST PUSH2 0x369 PUSH2 0x364 DUP3 PUSH2 0x255 JUMP JUMPDEST PUSH2 0x34F JUMP JUMPDEST DUP3 MSTORE POP POP JUMP JUMPDEST PUSH0 PUSH2 0x37A DUP3 DUP5 PUSH2 0x358 JUMP JUMPDEST PUSH1 0x20 DUP3 ADD SWAP2 POP DUP2 SWAP1 POP SWAP3 SWAP2 POP POP JUMP JUMPDEST PUSH32 0x4E487B7100000000000000000000000000000000000000000000000000000000 PUSH0 MSTORE PUSH1 0x12 PUSH1 0x4 MSTORE PUSH1 0x24 PUSH0 REVERT JUMPDEST PUSH0 PUSH2 0x3C0 DUP3 PUSH2 0x255 JUMP JUMPDEST SWAP2 POP PUSH2 0x3CB DUP4 PUSH2 0x255 JUMP JUMPDEST SWAP3 POP DUP3 PUSH2 0x3DB JUMPI PUSH2 0x3DA PUSH2 0x389 JUMP JUMPDEST JUMPDEST DUP3 DUP3 MOD SWAP1 POP SWAP3 SWAP2 POP POP JUMP JUMPDEST PUSH0 PUSH2 0x3F0 DUP3 PUSH2 0x255 JUMP JUMPDEST SWAP2 POP PUSH2 0x3FB DUP4 PUSH2 0x255 JUMP JUMPDEST SWAP3 POP DUP3 PUSH2 0x40B JUMPI PUSH2 0x40A PUSH2 0x389 JUMP JUMPDEST JUMPDEST DUP3 DUP3 DIV SWAP1 POP SWAP3 SWAP2 POP POP JUMP JUMPDEST PUSH0 PUSH2 0x420 DUP3 PUSH2 0x239 JUMP JUMPDEST SWAP2 POP PUSH2 0x42B DUP4 PUSH2 0x239 JUMP JUMPDEST SWAP3 POP DUP3 PUSH2 0x43B JUMPI PUSH2 0x43A PUSH2 0x389 JUMP JUMPDEST JUMPDEST DUP3 DUP3 MOD SWAP1 POP SWAP3 SWAP2 POP POP JUMP JUMPDEST PUSH32 0x4E487B7100000000000000000000000000000000000000000000000000000000 PUSH0 MSTORE PUSH1 0x32 PUSH1 0x4 MSTORE PUSH1 0x24 PUSH0 REVERT JUMPDEST PUSH0 PUSH2 0x47D DUP3 PUSH2 0x239 JUMP JUMPDEST SWAP2 POP PUSH2 0x488 DUP4 PUSH2 0x239 JUMP JUMPDEST SWAP3 POP DUP3 PUSH2 0x498 JUMPI PUSH2 0x497 PUSH2 0x389 JUMP JUMPDEST JUMPDEST DUP3 DUP3 DIV SWAP1 POP SWAP3 SWAP2 POP POP JUMP INVALID LOG2 PUSH5 0x6970667358 0x22 SLT KECCAK256 SIGNEXTEND CODECOPY 0xDD 0xC7 PUSH2 0xD30D 0x2E TIMESTAMP PUSH21 0x1E956E1B357A4EB32E712C5A321B25E54A90CB9B15 PUSH18 0x64736F6C634300081A003300000000000000 "
		},
		"gasEstimates": {
			"creation": {
				"codeDepositCost": "248200",
				"executionCost": "285",
				"totalCost": "248485"
			},
			"external": {
				"card(uint256,uint256)": "infinite",
				"pickcard()": "infinite"
			}
		},
		"methodIdentifiers": {
			"card(uint256,uint256)": "8cdac16d",
			"pickcard()": "801464b7"
		}
	},
	"abi": [
		{
			"inputs": [
				{
					"internalType": "uint256",
					"name": "",
					"type": "uint256"
				},
				{
					"internalType": "uint256",
					"name": "",
					"type": "uint256"
				}
			],
			"name": "card",
			"outputs": [
				{
					"internalType": "bool",
					"name": "",
					"type": "bool"
				}
			],
			"stateMutability": "view",
			"type": "function"
		},
		{
			"inputs": [],
			"name": "pickcard",
			"outputs": [
				{
					"internalType": "uint16",
					"name": "",
					"type": "uint16"
				},
				{
					"internalType": "uint256",
					"name": "",
					"type": "uint256"
				},
				{
					"internalType": "uint16",
					"name": "",
					"type": "uint16"
				},
				{
					"internalType": "uint256",
					"name": "",
					"type": "uint256"
				}
			],
			"stateMutability": "nonpayable",
			"type": "function"
		}
	]
}