{
	"data": {
		"bytecode": {
			"linkReferences": {},
			"object": "6080604052348015600e575f80fd5b506109618061001c5f395ff3fe60806040526004361061003e575f3560e01c806369774c2d1461004257806388d0b2621461004c5780638a262b2a1461008a578063eca01249146100b2575b5f80fd5b61004a6100f0565b005b348015610057575f80fd5b50610072600480360381019061006d91906103a1565b61013d565b6040516100819392919061044b565b60405180910390f35b348015610095575f80fd5b506100b060048036038101906100ab91906105b3565b6101f7565b005b3480156100bd575f80fd5b506100d860048036038101906100d391906103a1565b6102b1565b6040516100e79392919061044b565b60405180910390f35b670de0b6b3a764000034101561013b576040517f08c379a000000000000000000000000000000000000000000000000000000000815260040161013290610644565b60405180910390fd5b565b5f818154811061014b575f80fd5b905f5260205f2090600302015f91509050805f01805461016a9061068f565b80601f01602080910402602001604051908101604052809291908181526020018280546101969061068f565b80156101e15780601f106101b8576101008083540402835291602001916101e1565b820191905f5260205f20905b8154815290600101906020018083116101c457829003601f168201915b5050505050908060010154908060020154905083565b5f808054905090505f60405180606001604052808481526020018381526020015f81525090505f81908060018154018082558091505060019003905f5260205f2090600302015f909190919091505f820151815f019081610258919061085c565b50602082015181600101556040820151816002015550508060015f8481526020019081526020015f205f820151815f019081610294919061085c565b506020820151816001015560408201518160020155905050505050565b6001602052805f5260405f205f91509050805f0180546102d09061068f565b80601f01602080910402602001604051908101604052809291908181526020018280546102fc9061068f565b80156103475780601f1061031e57610100808354040283529160200191610347565b820191905f5260205f20905b81548152906001019060200180831161032a57829003601f168201915b5050505050908060010154908060020154905083565b5f604051905090565b5f80fd5b5f80fd5b5f819050919050565b6103808161036e565b811461038a575f80fd5b50565b5f8135905061039b81610377565b92915050565b5f602082840312156103b6576103b5610366565b5b5f6103c38482850161038d565b91505092915050565b5f81519050919050565b5f82825260208201905092915050565b8281835e5f83830152505050565b5f601f19601f8301169050919050565b5f61040e826103cc565b61041881856103d6565b93506104288185602086016103e6565b610431816103f4565b840191505092915050565b6104458161036e565b82525050565b5f6060820190508181035f8301526104638186610404565b9050610472602083018561043c565b61047f604083018461043c565b949350505050565b5f80fd5b5f80fd5b7f4e487b71000000000000000000000000000000000000000000000000000000005f52604160045260245ffd5b6104c5826103f4565b810181811067ffffffffffffffff821117156104e4576104e361048f565b5b80604052505050565b5f6104f661035d565b905061050282826104bc565b919050565b5f67ffffffffffffffff8211156105215761052061048f565b5b61052a826103f4565b9050602081019050919050565b828183375f83830152505050565b5f61055761055284610507565b6104ed565b9050828152602081018484840111156105735761057261048b565b5b61057e848285610537565b509392505050565b5f82601f83011261059a57610599610487565b5b81356105aa848260208601610545565b91505092915050565b5f602082840312156105c8576105c7610366565b5b5f82013567ffffffffffffffff8111156105e5576105e461036a565b5b6105f184828501610586565b91505092915050565b7f696e73756666696369656e7420616d6f756e7420746f20746f707570000000005f82015250565b5f61062e601c836103d6565b9150610639826105fa565b602082019050919050565b5f6020820190508181035f83015261065b81610622565b9050919050565b7f4e487b71000000000000000000000000000000000000000000000000000000005f52602260045260245ffd5b5f60028204905060018216806106a657607f821691505b6020821081036106b9576106b8610662565b5b50919050565b5f819050815f5260205f209050919050565b5f6020601f8301049050919050565b5f82821b905092915050565b5f6008830261071b7fffffffffffffffffffffffffffffffffffffffffffffffffffffffffffffffff826106e0565b61072586836106e0565b95508019841693508086168417925050509392505050565b5f819050919050565b5f61076061075b6107568461036e565b61073d565b61036e565b9050919050565b5f819050919050565b61077983610746565b61078d61078582610767565b8484546106ec565b825550505050565b5f90565b6107a1610795565b6107ac818484610770565b505050565b5b818110156107cf576107c45f82610799565b6001810190506107b2565b5050565b601f821115610814576107e5816106bf565b6107ee846106d1565b810160208510156107fd578190505b610811610809856106d1565b8301826107b1565b50505b505050565b5f82821c905092915050565b5f6108345f1984600802610819565b1980831691505092915050565b5f61084c8383610825565b9150826002028217905092915050565b610865826103cc565b67ffffffffffffffff81111561087e5761087d61048f565b5b610888825461068f565b6108938282856107d3565b5f60209050601f8311600181146108c4575f84156108b2578287015190505b6108bc8582610841565b865550610923565b601f1984166108d2866106bf565b5f5b828110156108f9578489015182556001820191506020850194506020810190506108d4565b868310156109165784890151610912601f891682610825565b8355505b6001600288020188555050505b50505050505056fea26469706673582212208dbb5005aee82ac56f25ff6552e309d4f42b93373f3e9c3bbe205e19a39a5c5b64736f6c634300081a0033",
			"opcodes": "PUSH1 0x80 PUSH1 0x40 MSTORE CALLVALUE DUP1 ISZERO PUSH1 0xE JUMPI PUSH0 DUP1 REVERT JUMPDEST POP PUSH2 0x961 DUP1 PUSH2 0x1C PUSH0 CODECOPY PUSH0 RETURN INVALID PUSH1 0x80 PUSH1 0x40 MSTORE PUSH1 0x4 CALLDATASIZE LT PUSH2 0x3E JUMPI PUSH0 CALLDATALOAD PUSH1 0xE0 SHR DUP1 PUSH4 0x69774C2D EQ PUSH2 0x42 JUMPI DUP1 PUSH4 0x88D0B262 EQ PUSH2 0x4C JUMPI DUP1 PUSH4 0x8A262B2A EQ PUSH2 0x8A JUMPI DUP1 PUSH4 0xECA01249 EQ PUSH2 0xB2 JUMPI JUMPDEST PUSH0 DUP1 REVERT JUMPDEST PUSH2 0x4A PUSH2 0xF0 JUMP JUMPDEST STOP JUMPDEST CALLVALUE DUP1 ISZERO PUSH2 0x57 JUMPI PUSH0 DUP1 REVERT JUMPDEST POP PUSH2 0x72 PUSH1 0x4 DUP1 CALLDATASIZE SUB DUP2 ADD SWAP1 PUSH2 0x6D SWAP2 SWAP1 PUSH2 0x3A1 JUMP JUMPDEST PUSH2 0x13D JUMP JUMPDEST PUSH1 0x40 MLOAD PUSH2 0x81 SWAP4 SWAP3 SWAP2 SWAP1 PUSH2 0x44B JUMP JUMPDEST PUSH1 0x40 MLOAD DUP1 SWAP2 SUB SWAP1 RETURN JUMPDEST CALLVALUE DUP1 ISZERO PUSH2 0x95 JUMPI PUSH0 DUP1 REVERT JUMPDEST POP PUSH2 0xB0 PUSH1 0x4 DUP1 CALLDATASIZE SUB DUP2 ADD SWAP1 PUSH2 0xAB SWAP2 SWAP1 PUSH2 0x5B3 JUMP JUMPDEST PUSH2 0x1F7 JUMP JUMPDEST STOP JUMPDEST CALLVALUE DUP1 ISZERO PUSH2 0xBD JUMPI PUSH0 DUP1 REVERT JUMPDEST POP PUSH2 0xD8 PUSH1 0x4 DUP1 CALLDATASIZE SUB DUP2 ADD SWAP1 PUSH2 0xD3 SWAP2 SWAP1 PUSH2 0x3A1 JUMP JUMPDEST PUSH2 0x2B1 JUMP JUMPDEST PUSH1 0x40 MLOAD PUSH2 0xE7 SWAP4 SWAP3 SWAP2 SWAP1 PUSH2 0x44B JUMP JUMPDEST PUSH1 0x40 MLOAD DUP1 SWAP2 SUB SWAP1 RETURN JUMPDEST PUSH8 0xDE0B6B3A7640000 CALLVALUE LT ISZERO PUSH2 0x13B JUMPI PUSH1 0x40 MLOAD PUSH32 0x8C379A000000000000000000000000000000000000000000000000000000000 DUP2 MSTORE PUSH1 0x4 ADD PUSH2 0x132 SWAP1 PUSH2 0x644 JUMP JUMPDEST PUSH1 0x40 MLOAD DUP1 SWAP2 SUB SWAP1 REVERT JUMPDEST JUMP JUMPDEST PUSH0 DUP2 DUP2 SLOAD DUP2 LT PUSH2 0x14B JUMPI PUSH0 DUP1 REVERT JUMPDEST SWAP1 PUSH0 MSTORE PUSH1 0x20 PUSH0 KECCAK256 SWAP1 PUSH1 0x3 MUL ADD PUSH0 SWAP2 POP SWAP1 POP DUP1 PUSH0 ADD DUP1 SLOAD PUSH2 0x16A SWAP1 PUSH2 0x68F JUMP JUMPDEST DUP1 PUSH1 0x1F ADD PUSH1 0x20 DUP1 SWAP2 DIV MUL PUSH1 0x20 ADD PUSH1 0x40 MLOAD SWAP1 DUP2 ADD PUSH1 0x40 MSTORE DUP1 SWAP3 SWAP2 SWAP1 DUP2 DUP2 MSTORE PUSH1 0x20 ADD DUP3 DUP1 SLOAD PUSH2 0x196 SWAP1 PUSH2 0x68F JUMP JUMPDEST DUP1 ISZERO PUSH2 0x1E1 JUMPI DUP1 PUSH1 0x1F LT PUSH2 0x1B8 JUMPI PUSH2 0x100 DUP1 DUP4 SLOAD DIV MUL DUP4 MSTORE SWAP2 PUSH1 0x20 ADD SWAP2 PUSH2 0x1E1 JUMP JUMPDEST DUP3 ADD SWAP2 SWAP1 PUSH0 MSTORE PUSH1 0x20 PUSH0 KECCAK256 SWAP1 JUMPDEST DUP2 SLOAD DUP2 MSTORE SWAP1 PUSH1 0x1 ADD SWAP1 PUSH1 0x20 ADD DUP1 DUP4 GT PUSH2 0x1C4 JUMPI DUP3 SWAP1 SUB PUSH1 0x1F AND DUP3 ADD SWAP2 JUMPDEST POP POP POP POP POP SWAP1 DUP1 PUSH1 0x1 ADD SLOAD SWAP1 DUP1 PUSH1 0x2 ADD SLOAD SWAP1 POP DUP4 JUMP JUMPDEST PUSH0 DUP1 DUP1 SLOAD SWAP1 POP SWAP1 POP PUSH0 PUSH1 0x40 MLOAD DUP1 PUSH1 0x60 ADD PUSH1 0x40 MSTORE DUP1 DUP5 DUP2 MSTORE PUSH1 0x20 ADD DUP4 DUP2 MSTORE PUSH1 0x20 ADD PUSH0 DUP2 MSTORE POP SWAP1 POP PUSH0 DUP2 SWAP1 DUP1 PUSH1 0x1 DUP2 SLOAD ADD DUP1 DUP3 SSTORE DUP1 SWAP2 POP POP PUSH1 0x1 SWAP1 SUB SWAP1 PUSH0 MSTORE PUSH1 0x20 PUSH0 KECCAK256 SWAP1 PUSH1 0x3 MUL ADD PUSH0 SWAP1 SWAP2 SWAP1 SWAP2 SWAP1 SWAP2 POP PUSH0 DUP3 ADD MLOAD DUP2 PUSH0 ADD SWAP1 DUP2 PUSH2 0x258 SWAP2 SWAP1 PUSH2 0x85C JUMP JUMPDEST POP PUSH1 0x20 DUP3 ADD MLOAD DUP2 PUSH1 0x1 ADD SSTORE PUSH1 0x40 DUP3 ADD MLOAD DUP2 PUSH1 0x2 ADD SSTORE POP POP DUP1 PUSH1 0x1 PUSH0 DUP5 DUP2 MSTORE PUSH1 0x20 ADD SWAP1 DUP2 MSTORE PUSH1 0x20 ADD PUSH0 KECCAK256 PUSH0 DUP3 ADD MLOAD DUP2 PUSH0 ADD SWAP1 DUP2 PUSH2 0x294 SWAP2 SWAP1 PUSH2 0x85C JUMP JUMPDEST POP PUSH1 0x20 DUP3 ADD MLOAD DUP2 PUSH1 0x1 ADD SSTORE PUSH1 0x40 DUP3 ADD MLOAD DUP2 PUSH1 0x2 ADD SSTORE SWAP1 POP POP POP POP POP JUMP JUMPDEST PUSH1 0x1 PUSH1 0x20 MSTORE DUP1 PUSH0 MSTORE PUSH1 0x40 PUSH0 KECCAK256 PUSH0 SWAP2 POP SWAP1 POP DUP1 PUSH0 ADD DUP1 SLOAD PUSH2 0x2D0 SWAP1 PUSH2 0x68F JUMP JUMPDEST DUP1 PUSH1 0x1F ADD PUSH1 0x20 DUP1 SWAP2 DIV MUL PUSH1 0x20 ADD PUSH1 0x40 MLOAD SWAP1 DUP2 ADD PUSH1 0x40 MSTORE DUP1 SWAP3 SWAP2 SWAP1 DUP2 DUP2 MSTORE PUSH1 0x20 ADD DUP3 DUP1 SLOAD PUSH2 0x2FC SWAP1 PUSH2 0x68F JUMP JUMPDEST DUP1 ISZERO PUSH2 0x347 JUMPI DUP1 PUSH1 0x1F LT PUSH2 0x31E JUMPI PUSH2 0x100 DUP1 DUP4 SLOAD DIV MUL DUP4 MSTORE SWAP2 PUSH1 0x20 ADD SWAP2 PUSH2 0x347 JUMP JUMPDEST DUP3 ADD SWAP2 SWAP1 PUSH0 MSTORE PUSH1 0x20 PUSH0 KECCAK256 SWAP1 JUMPDEST DUP2 SLOAD DUP2 MSTORE SWAP1 PUSH1 0x1 ADD SWAP1 PUSH1 0x20 ADD DUP1 DUP4 GT PUSH2 0x32A JUMPI DUP3 SWAP1 SUB PUSH1 0x1F AND DUP3 ADD SWAP2 JUMPDEST POP POP POP POP POP SWAP1 DUP1 PUSH1 0x1 ADD SLOAD SWAP1 DUP1 PUSH1 0x2 ADD SLOAD SWAP1 POP DUP4 JUMP JUMPDEST PUSH0 PUSH1 0x40 MLOAD SWAP1 POP SWAP1 JUMP JUMPDEST PUSH0 DUP1 REVERT JUMPDEST PUSH0 DUP1 REVERT JUMPDEST PUSH0 DUP2 SWAP1 POP SWAP2 SWAP1 POP JUMP JUMPDEST PUSH2 0x380 DUP2 PUSH2 0x36E JUMP JUMPDEST DUP2 EQ PUSH2 0x38A JUMPI PUSH0 DUP1 REVERT JUMPDEST POP JUMP JUMPDEST PUSH0 DUP2 CALLDATALOAD SWAP1 POP PUSH2 0x39B DUP2 PUSH2 0x377 JUMP JUMPDEST SWAP3 SWAP2 POP POP JUMP JUMPDEST PUSH0 PUSH1 0x20 DUP3 DUP5 SUB SLT ISZERO PUSH2 0x3B6 JUMPI PUSH2 0x3B5 PUSH2 0x366 JUMP JUMPDEST JUMPDEST PUSH0 PUSH2 0x3C3 DUP5 DUP3 DUP6 ADD PUSH2 0x38D JUMP JUMPDEST SWAP2 POP POP SWAP3 SWAP2 POP POP JUMP JUMPDEST PUSH0 DUP2 MLOAD SWAP1 POP SWAP2 SWAP1 POP JUMP JUMPDEST PUSH0 DUP3 DUP3 MSTORE PUSH1 0x20 DUP3 ADD SWAP1 POP SWAP3 SWAP2 POP POP JUMP JUMPDEST DUP3 DUP2 DUP4 MCOPY PUSH0 DUP4 DUP4 ADD MSTORE POP POP POP JUMP JUMPDEST PUSH0 PUSH1 0x1F NOT PUSH1 0x1F DUP4 ADD AND SWAP1 POP SWAP2 SWAP1 POP JUMP JUMPDEST PUSH0 PUSH2 0x40E DUP3 PUSH2 0x3CC JUMP JUMPDEST PUSH2 0x418 DUP2 DUP6 PUSH2 0x3D6 JUMP JUMPDEST SWAP4 POP PUSH2 0x428 DUP2 DUP6 PUSH1 0x20 DUP7 ADD PUSH2 0x3E6 JUMP JUMPDEST PUSH2 0x431 DUP2 PUSH2 0x3F4 JUMP JUMPDEST DUP5 ADD SWAP2 POP POP SWAP3 SWAP2 POP POP JUMP JUMPDEST PUSH2 0x445 DUP2 PUSH2 0x36E JUMP JUMPDEST DUP3 MSTORE POP POP JUMP JUMPDEST PUSH0 PUSH1 0x60 DUP3 ADD SWAP1 POP DUP2 DUP2 SUB PUSH0 DUP4 ADD MSTORE PUSH2 0x463 DUP2 DUP7 PUSH2 0x404 JUMP JUMPDEST SWAP1 POP PUSH2 0x472 PUSH1 0x20 DUP4 ADD DUP6 PUSH2 0x43C JUMP JUMPDEST PUSH2 0x47F PUSH1 0x40 DUP4 ADD DUP5 PUSH2 0x43C JUMP JUMPDEST SWAP5 SWAP4 POP POP POP POP JUMP JUMPDEST PUSH0 DUP1 REVERT JUMPDEST PUSH0 DUP1 REVERT JUMPDEST PUSH32 0x4E487B7100000000000000000000000000000000000000000000000000000000 PUSH0 MSTORE PUSH1 0x41 PUSH1 0x4 MSTORE PUSH1 0x24 PUSH0 REVERT JUMPDEST PUSH2 0x4C5 DUP3 PUSH2 0x3F4 JUMP JUMPDEST DUP2 ADD DUP2 DUP2 LT PUSH8 0xFFFFFFFFFFFFFFFF DUP3 GT OR ISZERO PUSH2 0x4E4 JUMPI PUSH2 0x4E3 PUSH2 0x48F JUMP JUMPDEST JUMPDEST DUP1 PUSH1 0x40 MSTORE POP POP POP JUMP JUMPDEST PUSH0 PUSH2 0x4F6 PUSH2 0x35D JUMP JUMPDEST SWAP1 POP PUSH2 0x502 DUP3 DUP3 PUSH2 0x4BC JUMP JUMPDEST SWAP2 SWAP1 POP JUMP JUMPDEST PUSH0 PUSH8 0xFFFFFFFFFFFFFFFF DUP3 GT ISZERO PUSH2 0x521 JUMPI PUSH2 0x520 PUSH2 0x48F JUMP JUMPDEST JUMPDEST PUSH2 0x52A DUP3 PUSH2 0x3F4 JUMP JUMPDEST SWAP1 POP PUSH1 0x20 DUP2 ADD SWAP1 POP SWAP2 SWAP1 POP JUMP JUMPDEST DUP3 DUP2 DUP4 CALLDATACOPY PUSH0 DUP4 DUP4 ADD MSTORE POP POP POP JUMP JUMPDEST PUSH0 PUSH2 0x557 PUSH2 0x552 DUP5 PUSH2 0x507 JUMP JUMPDEST PUSH2 0x4ED JUMP JUMPDEST SWAP1 POP DUP3 DUP2 MSTORE PUSH1 0x20 DUP2 ADD DUP5 DUP5 DUP5 ADD GT ISZERO PUSH2 0x573 JUMPI PUSH2 0x572 PUSH2 0x48B JUMP JUMPDEST JUMPDEST PUSH2 0x57E DUP5 DUP3 DUP6 PUSH2 0x537 JUMP JUMPDEST POP SWAP4 SWAP3 POP POP POP JUMP JUMPDEST PUSH0 DUP3 PUSH1 0x1F DUP4 ADD SLT PUSH2 0x59A JUMPI PUSH2 0x599 PUSH2 0x487 JUMP JUMPDEST JUMPDEST DUP2 CALLDATALOAD PUSH2 0x5AA DUP5 DUP3 PUSH1 0x20 DUP7 ADD PUSH2 0x545 JUMP JUMPDEST SWAP2 POP POP SWAP3 SWAP2 POP POP JUMP JUMPDEST PUSH0 PUSH1 0x20 DUP3 DUP5 SUB SLT ISZERO PUSH2 0x5C8 JUMPI PUSH2 0x5C7 PUSH2 0x366 JUMP JUMPDEST JUMPDEST PUSH0 DUP3 ADD CALLDATALOAD PUSH8 0xFFFFFFFFFFFFFFFF DUP2 GT ISZERO PUSH2 0x5E5 JUMPI PUSH2 0x5E4 PUSH2 0x36A JUMP JUMPDEST JUMPDEST PUSH2 0x5F1 DUP5 DUP3 DUP6 ADD PUSH2 0x586 JUMP JUMPDEST SWAP2 POP POP SWAP3 SWAP2 POP POP JUMP JUMPDEST PUSH32 0x696E73756666696369656E7420616D6F756E7420746F20746F70757000000000 PUSH0 DUP3 ADD MSTORE POP JUMP JUMPDEST PUSH0 PUSH2 0x62E PUSH1 0x1C DUP4 PUSH2 0x3D6 JUMP JUMPDEST SWAP2 POP PUSH2 0x639 DUP3 PUSH2 0x5FA JUMP JUMPDEST PUSH1 0x20 DUP3 ADD SWAP1 POP SWAP2 SWAP1 POP JUMP JUMPDEST PUSH0 PUSH1 0x20 DUP3 ADD SWAP1 POP DUP2 DUP2 SUB PUSH0 DUP4 ADD MSTORE PUSH2 0x65B DUP2 PUSH2 0x622 JUMP JUMPDEST SWAP1 POP SWAP2 SWAP1 POP JUMP JUMPDEST PUSH32 0x4E487B7100000000000000000000000000000000000000000000000000000000 PUSH0 MSTORE PUSH1 0x22 PUSH1 0x4 MSTORE PUSH1 0x24 PUSH0 REVERT JUMPDEST PUSH0 PUSH1 0x2 DUP3 DIV SWAP1 POP PUSH1 0x1 DUP3 AND DUP1 PUSH2 0x6A6 JUMPI PUSH1 0x7F DUP3 AND SWAP2 POP JUMPDEST PUSH1 0x20 DUP3 LT DUP2 SUB PUSH2 0x6B9 JUMPI PUSH2 0x6B8 PUSH2 0x662 JUMP JUMPDEST JUMPDEST POP SWAP2 SWAP1 POP JUMP JUMPDEST PUSH0 DUP2 SWAP1 POP DUP2 PUSH0 MSTORE PUSH1 0x20 PUSH0 KECCAK256 SWAP1 POP SWAP2 SWAP1 POP JUMP JUMPDEST PUSH0 PUSH1 0x20 PUSH1 0x1F DUP4 ADD DIV SWAP1 POP SWAP2 SWAP1 POP JUMP JUMPDEST PUSH0 DUP3 DUP3 SHL SWAP1 POP SWAP3 SWAP2 POP POP JUMP JUMPDEST PUSH0 PUSH1 0x8 DUP4 MUL PUSH2 0x71B PUSH32 0xFFFFFFFFFFFFFFFFFFFFFFFFFFFFFFFFFFFFFFFFFFFFFFFFFFFFFFFFFFFFFFFF DUP3 PUSH2 0x6E0 JUMP JUMPDEST PUSH2 0x725 DUP7 DUP4 PUSH2 0x6E0 JUMP JUMPDEST SWAP6 POP DUP1 NOT DUP5 AND SWAP4 POP DUP1 DUP7 AND DUP5 OR SWAP3 POP POP POP SWAP4 SWAP3 POP POP POP JUMP JUMPDEST PUSH0 DUP2 SWAP1 POP SWAP2 SWAP1 POP JUMP JUMPDEST PUSH0 PUSH2 0x760 PUSH2 0x75B PUSH2 0x756 DUP5 PUSH2 0x36E JUMP JUMPDEST PUSH2 0x73D JUMP JUMPDEST PUSH2 0x36E JUMP JUMPDEST SWAP1 POP SWAP2 SWAP1 POP JUMP JUMPDEST PUSH0 DUP2 SWAP1 POP SWAP2 SWAP1 POP JUMP JUMPDEST PUSH2 0x779 DUP4 PUSH2 0x746 JUMP JUMPDEST PUSH2 0x78D PUSH2 0x785 DUP3 PUSH2 0x767 JUMP JUMPDEST DUP5 DUP5 SLOAD PUSH2 0x6EC JUMP JUMPDEST DUP3 SSTORE POP POP POP POP JUMP JUMPDEST PUSH0 SWAP1 JUMP JUMPDEST PUSH2 0x7A1 PUSH2 0x795 JUMP JUMPDEST PUSH2 0x7AC DUP2 DUP5 DUP5 PUSH2 0x770 JUMP JUMPDEST POP POP POP JUMP JUMPDEST JUMPDEST DUP2 DUP2 LT ISZERO PUSH2 0x7CF JUMPI PUSH2 0x7C4 PUSH0 DUP3 PUSH2 0x799 JUMP JUMPDEST PUSH1 0x1 DUP2 ADD SWAP1 POP PUSH2 0x7B2 JUMP JUMPDEST POP POP JUMP JUMPDEST PUSH1 0x1F DUP3 GT ISZERO PUSH2 0x814 JUMPI PUSH2 0x7E5 DUP2 PUSH2 0x6BF JUMP JUMPDEST PUSH2 0x7EE DUP5 PUSH2 0x6D1 JUMP JUMPDEST DUP2 ADD PUSH1 0x20 DUP6 LT ISZERO PUSH2 0x7FD JUMPI DUP2 SWAP1 POP JUMPDEST PUSH2 0x811 PUSH2 0x809 DUP6 PUSH2 0x6D1 JUMP JUMPDEST DUP4 ADD DUP3 PUSH2 0x7B1 JUMP JUMPDEST POP POP JUMPDEST POP POP POP JUMP JUMPDEST PUSH0 DUP3 DUP3 SHR SWAP1 POP SWAP3 SWAP2 POP POP JUMP JUMPDEST PUSH0 PUSH2 0x834 PUSH0 NOT DUP5 PUSH1 0x8 MUL PUSH2 0x819 JUMP JUMPDEST NOT DUP1 DUP4 AND SWAP2 POP POP SWAP3 SWAP2 POP POP JUMP JUMPDEST PUSH0 PUSH2 0x84C DUP4 DUP4 PUSH2 0x825 JUMP JUMPDEST SWAP2 POP DUP3 PUSH1 0x2 MUL DUP3 OR SWAP1 POP SWAP3 SWAP2 POP POP JUMP JUMPDEST PUSH2 0x865 DUP3 PUSH2 0x3CC JUMP JUMPDEST PUSH8 0xFFFFFFFFFFFFFFFF DUP2 GT ISZERO PUSH2 0x87E JUMPI PUSH2 0x87D PUSH2 0x48F JUMP JUMPDEST JUMPDEST PUSH2 0x888 DUP3 SLOAD PUSH2 0x68F JUMP JUMPDEST PUSH2 0x893 DUP3 DUP3 DUP6 PUSH2 0x7D3 JUMP JUMPDEST PUSH0 PUSH1 0x20 SWAP1 POP PUSH1 0x1F DUP4 GT PUSH1 0x1 DUP2 EQ PUSH2 0x8C4 JUMPI PUSH0 DUP5 ISZERO PUSH2 0x8B2 JUMPI DUP3 DUP8 ADD MLOAD SWAP1 POP JUMPDEST PUSH2 0x8BC DUP6 DUP3 PUSH2 0x841 JUMP JUMPDEST DUP7 SSTORE POP PUSH2 0x923 JUMP JUMPDEST PUSH1 0x1F NOT DUP5 AND PUSH2 0x8D2 DUP7 PUSH2 0x6BF JUMP JUMPDEST PUSH0 JUMPDEST DUP3 DUP2 LT ISZERO PUSH2 0x8F9 JUMPI DUP5 DUP10 ADD MLOAD DUP3 SSTORE PUSH1 0x1 DUP3 ADD SWAP2 POP PUSH1 0x20 DUP6 ADD SWAP5 POP PUSH1 0x20 DUP2 ADD SWAP1 POP PUSH2 0x8D4 JUMP JUMPDEST DUP7 DUP4 LT ISZERO PUSH2 0x916 JUMPI DUP5 DUP10 ADD MLOAD PUSH2 0x912 PUSH1 0x1F DUP10 AND DUP3 PUSH2 0x825 JUMP JUMPDEST DUP4 SSTORE POP JUMPDEST PUSH1 0x1 PUSH1 0x2 DUP9 MUL ADD DUP9 SSTORE POP POP POP JUMPDEST POP POP POP POP POP POP JUMP INVALID LOG2 PUSH5 0x6970667358 0x22 SLT KECCAK256 DUP14 0xBB POP SDIV 0xAE 0xE8 0x2A 0xC5 PUSH16 0x25FF6552E309D4F42B93373F3E9C3BBE KECCAK256 MCOPY NOT LOG3 SWAP11 TLOAD JUMPDEST PUSH5 0x736F6C6343 STOP ADDMOD BYTE STOP CALLER "
		},
		"gasEstimates": {
			"creation": {
				"codeDepositCost": "480200",
				"executionCost": "516",
				"totalCost": "480716"
			},
			"external": {
				"_user(uint256)": "infinite",
				"createuser(string)": "infinite",
				"topup()": "406",
				"uidtouser(uint256)": "infinite"
			}
		},
		"methodIdentifiers": {
			"_user(uint256)": "88d0b262",
			"createuser(string)": "8a262b2a",
			"topup()": "69774c2d",
			"uidtouser(uint256)": "eca01249"
		}
	},
	"abi": [
		{
			"inputs": [
				{
					"internalType": "uint256",
					"name": "",
					"type": "uint256"
				}
			],
			"name": "_user",
			"outputs": [
				{
					"internalType": "string",
					"name": "name",
					"type": "string"
				},
				{
					"internalType": "uint256",
					"name": "uid",
					"type": "uint256"
				},
				{
					"internalType": "uint256",
					"name": "token",
					"type": "uint256"
				}
			],
			"stateMutability": "view",
			"type": "function"
		},
		{
			"inputs": [
				{
					"internalType": "string",
					"name": "name",
					"type": "string"
				}
			],
			"name": "createuser",
			"outputs": [],
			"stateMutability": "nonpayable",
			"type": "function"
		},
		{
			"inputs": [],
			"name": "topup",
			"outputs": [],
			"stateMutability": "payable",
			"type": "function"
		},
		{
			"inputs": [
				{
					"internalType": "uint256",
					"name": "",
					"type": "uint256"
				}
			],
			"name": "uidtouser",
			"outputs": [
				{
					"internalType": "string",
					"name": "name",
					"type": "string"
				},
				{
					"internalType": "uint256",
					"name": "uid",
					"type": "uint256"
				},
				{
					"internalType": "uint256",
					"name": "token",
					"type": "uint256"
				}
			],
			"stateMutability": "view",
			"type": "function"
		}
	]
}